:020000040800F2
:10000000000002207D0900087909000895D5000844
:100010007909000879090008790900080000000042
:100020000000000000000000000000007909000846
:1000300079090008000000007909000885D500084A
:100040007909000879090008790900087909000888
:100050007909000879090008790900087909000878
:1000600079090008790900087909000845CD0008D8
:1000700051CD00084DBF00085DCD000869CD0008D6
:1000800075D50008C55201087909000879090008EA
:100090007909000879090008790900087909000838
:1000A0007909000879090008790900087909000828
:1000B000790900087909000879090008E95201085E
:1000C00079090008F5520108790900087909000842
:1000D0007909000841D50008790900087909000864
:1000E0007909000879090008000000007909000872
:1000F00079090008790900087909000879090008D8
:1001000079090008790900087909000879090008C7
:1001100079090008790900081DC20008790900085A
:1001200005C2000811C20008790900087909000811
:100130007909000879090008790900087909000897
:1001400000000000000000000000000000000000AF
:100150007909000879090008790900087909000877
:100160000153010879090008790900087909000894
:100170007909000879090008790900087909000857
:100180007909000879090008790900087909000847
:100190007909000879090008790900087909000837
:1001A0007909000879090008790900087909000827
:1001B0008DCA000879090008790900087909000842
:1001C0007909000879090008790900087909000807
:1001D00079090008790900087909000879090008F7
:1001E00079090008790900087909000879090008E7
:1001F00079090008790900087909000879090008D7
:1002000079090008790900087909000879090008C6
:1002100079090008790900087909000879090008B6
:100220007909000879090008790900080000000030
:100230007909000879090008000000007909000820
:100240007909000879090008790900087909000886
:100250007909000879090008790900087909000876
:100260007909000879090008790900087909000866
:1002700079090008790900087909000800000000E0
:1002800079090008790900087909000800000000D0
:080290000000000079090008DC
:1002980010B5054C237833B9044B13B10448AFF3B8
:1002A80000800123237010BDD0110024000000003D
:1002B80030B0010808B5034B1BB103490348AFF33D
:1002C800008008BD00000000D411002430B00108EF
:1002D80010F8012B11F8013B012A28BF9A42F7D0E8
:1002E800D01A7047034613F8012B002AFBD1181ABD
:1002F8000138704781F0004102E000BF83F00043FD
:1003080030B54FEA41044FEA430594EA050F08BFA8
:1003180090EA020F1FBF54EA000C55EA020C7FEA6C
:10032800645C7FEA655C00F0E2804FEA5454D4EBE9
:100338005555B8BF6D420CDD2C4480EA020281EAB3
:10034800030382EA000083EA010180EA020281EAEB
:100358000303362D88BF30BD11F0004F4FEA01313D
:100368004FF4801C4CEA113102D0404261EB41014C
:1003780013F0004F4FEA03334CEA133302D05242D2
:1003880063EB430394EA050F00F0A780A4F101048E
:10039800D5F1200E0DDB02FA0EFC22FA05F28018C8
:1003A80041F1000103FA0EF2801843FA05F35941AE
:1003B8000EE0A5F120050EF1200E012A03FA0EFC2D
:1003C80028BF4CF0020C43FA05F3C01851EBE37157
:1003D80001F0004507D54FF0000EDCF1000C7EEB74
:1003E80000006EEB0101B1F5801F1BD3B1F5001FB2
:1003F8000CD349085FEA30004FEA3C0C04F10104D1
:100408004FEA445212F5800F80F09A80BCF1004FF9
:1004180008BF5FEA500C50F1000041EB045141EA7B
:10042800050130BD5FEA4C0C404141EB0101013C44
:1004380028BFB1F5801FE9D291F0000F04BF014633
:100448000020B1FA81F308BF2033A3F10B03B3F105
:1004580020020CDA0C3208DD02F1140CC2F10C0295
:1004680001FA0CF021FA02F10CE002F11402D8BFF3
:10047800C2F1200C01FA02F120FA0CFCDCBF41EABF
:100488000C019040E41AA2BF01EB0451294330BD8E
:100498006FEA04041F3C1CDA0C340EDC04F114046B
:1004A800C4F1200220FA04F001FA02F340EA030042
:1004B80021FA04F345EA030130BDC4F10C04C4F188
:1004C800200220FA02F001FA04F340EA0300294668
:1004D80030BD21FA04F0294630BD94F0000F83F4B2
:1004E800801306BF81F480110134013D4EE77FEA95
:1004F800645C18BF7FEA655C29D094EA050F08BFE1
:1005080090EA020F05D054EA000C04BF19461046C1
:1005180030BD91EA030F1EBF0021002030BD5FEA05
:10052800545C05D14000494128BF41F0004130BD2D
:1005380014F580043CBF01F5801130BD01F0004581
:1005480045F0FE4141F470014FF0000030BD7FEAF4
:10055800645C1ABF194610467FEA655C1CBF0B46EF
:10056800024650EA013406BF52EA033591EA030F06
:1005780041F4002130BD00BF90F0000F04BF0021FE
:10058800704730B54FF4806404F132044FF0000531
:100598004FF0000150E700BF90F0000F04BF0021AA
:1005A800704730B54FF4806404F1320410F0004510
:1005B80048BF40424FF000013EE700BF42004FEA0B
:1005C800E2014FEA31014FEA02701FBF12F07F4388
:1005D80093F07F4F81F06051704732F07F4208BF3F
:1005E800704793F07F4F04BF41F40021704730B546
:1005F8004FF4607401F0004521F000411CE700BF92
:1006080050EA010208BF704730B54FF000050AE014
:1006180050EA010208BF704730B511F0004502D515
:10062800404261EB41014FF4806404F132045FEA17
:10063800915C3FF4D8AE4FF003025FEADC0C18BFC0
:1006480003325FEADC0C18BF033202EBDC02C2F1B2
:10065800200300FA03FC20FA02F001FA03FE40EA44
:100668000E0021FA02F11444BDE600BF53B94AB99D
:10067800002908BF00281CBF4FF0FF314FF0FF30A2
:1006880000F074B9ADF1080C6DE904CE00F006F87D
:10069800DDF804E0DDE9022304B070472DE9F047F6
:1006A800089D04468E46002B4DD18A42944669D94E
:1006B800B2FA82F252B101FA02F3C2F1200120FA31
:1006C80001F10CFA02FC41EA030E94404FEA1C487F
:1006D800210CBEFBF8F61FFA8CF708FB16E341EA7B
:1006E800034306FB07F199420AD91CEB030306F101
:1006F800FF3080F01F81994240F21C81023E634422
:100708005B1AA4B2B3FBF8F008FB103344EA0344C5
:1007180000FB07F7A7420AD91CEB040400F1FF33DA
:1007280080F00A81A74240F207816444023840EA17
:100738000640E41B00261DB1D4400023C5E9004350
:100748003146BDE8F0878B4209D9002D00F0EF80D3
:100758000026C5E9000130463146BDE8F087B3FA06
:1007680083F6002E4AD18B4202D3824200F2F980EE
:10077800841A61EB030301209E46002DE0D0C5E9F1
:10078800004EDDE702B9FFDEB2FA82F2002A40F03D
:100798009280A1EB0C014FEA1C471FFA8CFE012640
:1007A800200CB1FBF7F307FB131140EA01410EFBE4
:1007B80003F0884208D91CEB010103F1FF3802D28B
:1007C800884200F2CB804346091AA4B2B1FBF7F085
:1007D80007FB101144EA01440EFB00FEA64508D9A8
:1007E8001CEB040400F1FF3102D2A64500F2BB80E5
:1007F8000846A4EB0E0440EA03409CE7C6F1200734
:10080800B34022FA07FC4CEA030C20FA07F401FA79
:1008180006F31C43F9404FEA1C4900FA06F3B1FB02
:10082800F9F8200C1FFA8CFE09FB181140EA014167
:1008380008FB0EF0884202FA06F20BD91CEB010104
:1008480008F1FF3A80F08880884240F28580A8F15C
:1008580002086144091AA4B2B1FBF9F009FB1011AE
:1008680044EA014100FB0EFE8E4508D91CEB01014C
:1008780000F1FF346CD28E456AD90238614440EAEF
:100888000840A0FB0294A1EB0E01A142C846A6466F
:1008980056D353D05DB1B3EB080261EB0E0101FAF8
:1008A80007F722FA06F3F1401F43C5E90071002655
:1008B8003146BDE8F087C2F12003D8400CFA02FCAB
:1008C80021FA03F3914001434FEA1C471FFA8CFEBB
:1008D800B3FBF7F007FB10360B0C43EA064300FBAB
:1008E8000EF69E4204FA02F408D91CEB030300F149
:1008F800FF382FD29E422DD9023863449B1B89B200
:10090800B3FBF7F607FB163341EA034106FB0EF388
:100918008B4208D91CEB010106F1FF3816D28B4235
:1009280014D9023E6144C91A46EA004638E72E4601
:10093800284605E70646E3E61846F8E64B45A9D2F9
:10094800B9EB020864EB0C0E0138A3E74646EAE768
:10095800204694E74046D1E7D0467BE7023B614416
:1009680032E7304609E76444023842E7704700BF7F
:10097800FEE700BF0B480C4A904203D0121A0B49FD
:1009880017F0E0F90A480B4A904203D0121A0021E6
:1009980017F000FA0CF068FF17F0A0F907F01EFF37
:1009A800FEE700BF00000024CC11002450B001086D
:1009B800D011002404420024704700BF024B426853
:1009C800C3F8102D704700BF88120024024B002284
:1009D800C3F8102D704700BF88120024024B4268EC
:1009E800C3F80C2D704700BF88120024024B002268
:1009F800C3F80C2D704700BF88120024704700BF51
:100A0800704700BF2DE9F84300264FF0FF348146B8
:100A180001F6F84807EE906AB6EE007ADFED230A91
:100A2800F8EEE77A99ED030AD9E9122377EE877A87
:100A380067EEA07ABBB3D3ED030A77EEA00A90471E
:100A4800B7EE006AB6EE007ADFED196ADFED197AC3
:100A5800002C30EE060A27EE407AE7EE267AFDEE05
:100A6800E77A17EE905A12DDA542CCBF01274FF066
:100A7800FF3722460123314640460AF001FDAC42C9
:100A88003C44F6D10136802E0BD02C46C2E73146C5
:100A98000136012317EE902A40460AF0F1FC802E19
:100AA800F3D1BDE8F883DFED040AC6E70000003C97
:100AB800000040420000784200000000D0ED037AB8
:100AC80090ED017AB4EEE77A2DE9F041F1EE10FAF3
:100AD8000F4608DAD0ED026AF4EEE76AF1EE10FA92
:100AE80023D8B0EE667A174B4FF00A080025D3EDED
:100AF800007AF8EEE77A67EE877AF8FE677AFDEE15
:100B0800E77A17EE906A002403E00AF0B9FC802C1B
:100B180012D00123AE422146424604F1010407F6F1
:100B2800F8401D44F1DCBDE8F08177EEC77A76EE37
:100B3800C76A87EEA67AD6E708F10108B8F14A0F26
:100B4800E1D1F0E744020024F0B500F1080783B0D2
:100B5800076031B3044608460E46FFF7C3FB0F286B
:100B6800054601900CD8012807D133782372002359
:100B7800204665607B5503B0F0BD0028F7D008E03B
:100B8800002201A9204615F09BFE019B0746206024
:100B9800A3602A463846314617F0D4F8019D2768E5
:100BA800E5E7014815F081FE1480010870B5054697
:100BB80082B00E4602B141B3941B0F2C019411D898
:100BC800012C286808D1337803700023019C286819
:100BD8006C60035502B070BD64B900236C600355A6
:100BE80002B070BD002201A9284615F069FE019BDC
:100BF8002860AB602246314617F0A4F8019C2868AB
:100C080000236C60035502B070BD014815F04DFE1D
:100C1800148001082DE9F04F814689B001F5C473AD
:100C280001F1380859F8245F0193A8F13804A9455F
:100C38001DD0AB6804AF02A8C3B166680297D3E9B8
:100C480001120A44FFF7B2FFAB68304602A9D3F895
:100C58001CB0D3F82CA015F0B8FE0298B842C6E92B
:100C680006BA03D00499013115F0D4FA2D6804347A
:100C78004445DCD104F13808019B4345D5D109B07E
:100C8800BDE8F08F70B5294D294E2B68DA690AB195
:100C98001846904732689368002B41D01468013B8E
:100CA800A16820469360296015F0F7FD20460C21C5
:100CB80015F0B0FA2B68986898B11E4CD4F8142D2A
:100CC80090420ED022B113681B49DB688B4228D1B1
:100CD80003681A4A9B6892ED000AC4F8140D9847F5
:100CE8002B685868B8B1164A1B6A116801F5A87CC8
:100CF80001F5C47E0B60ACF5A8735A68383300243C
:100D08009C45D461F9D10CF1040CF445F3D1036886
:100D18001B6898472B685A6912B1D26A002AB5D065
:100D280070BD104698472B689868D1E76C2D002451
:100D3800EC11002488120024050A0008682D0024FC
:100D4800D01F00242DE9F0412DED028B84B005461B
:100D580004AC04E90E009DF804309DF80C60012BEA
:100D680053D0ABB3052B16D107EE906ADFED356A89
:100D7800D0F8F421F8EEE77A114687EEA67A51F812
:100D8800243F8B4282ED0D7A05D09A681B6882ED6C
:100D98000C7A8B42F9D1D5F81422D5F8E031F7EE68
:100DA800007A002A9FED287A194647FE277AC3ED74
:100DB8000D7A51F8243F8B4205D09A681B68C2ED22
:100DC8000C7A8B42F9D104B0BDEC028BBDE8F081FE
:100DD800D0F80C4200F50377BC4203D1DBE7246866
:100DE800BC42D8D0A3689E42F9D1D5F81432204627
:100DF800D4F80080013BC5F8143215F04EFD2046AA
:100E08001021444615F006FAE9E79DF80D30102048
:100E18009FED0C7A07EE903AD5F80C12F8EE677A47
:100E2800009187EE878A15F050FA0099866080ED68
:100E3800038A15F02BFDD5F814220132C5F81422C7
:100E4800ABE700BF0000FE420000000070B5294D6E
:100E580082B004462B6873B1274B0C201E6831689A
:100E6800019115F032FA2B680199836015F00EFD97
:100E7800B3680133B360A0682C6098B11F4ED6F8F0
:100E8800143D98420ED023B11A681D49D2688A428F
:100E98002BD103681B4A9B6892ED000AC6F8140D13
:100EA80098472C686068B8B1174A236A116801F539
:100EB800A87C01F5C47E0B60ACF5A8735A6838337A
:100EC80000249C45D461F9D10CF1040CF445F3D10C
:100ED80003681B6898472C68A36923B1204602B0B1
:100EE800BDE87040184702B070BD184690472B689F
:100EF8009868CEE76C2D0024EC1100248812002499
:100F0800050A0008682D0024D01F00242DE9F04FA1
:100F1800564C87B00D460E1D04F1380707E0636B89
:100F28000BB1DA6A52BBBC4206F1040647D054F84A
:100F3800043B002BF3D0DA6A002AF0D00DF108093F
:100F48009A68D6F800806846CDF8009059680A4437
:100F5800FFF72CFE54F8043C40466946D3F81CB011
:100F6800D3F830A015F031FD00984845C8E906BA15
:100F7800D5D00299013115F04DF9D0E70DF10809E6
:100F88009A68D6F838806846CDF8009059680A44BF
:100F9800FFF70CFE636B40466946D3F81CB0D3F8E4
:100FA80030A015F012FD00984845C8E906BABAD035
:100FB80002990436013115F02DF9BC42B7D12C4CF9
:100FC800743504F1380607E0636B0BB1DA6A4ABB83
:100FD800B44205F1040545D054F8043B002BF3D086
:100FE800DA6A002AF0D00DF108089A682F68684676
:100FF800CDF8008059680A44FFF7D8FD54F8043C3E
:1010080038466946D3F81CA0D3F8309015F0DDFCBB
:1010180000984045C7E906A9D6D00299013115F0D4
:10102800F9F8D1E70DF108089A68AF6B6846CDF872
:10103800008059680A44FFF7B9FD636B3846694672
:10104800D3F81CA0D3F8309015F0BFFC00984045A9
:10105800C7E906A9BCD002990435013115F0DAF8C0
:10106800B442B9D107B0BDE8F08F00BF3C2C0024D2
:10107800AC2C002400000000FDEEE07AF8EEE77AE0
:1010880070EEE70AF5EEC00AF1EE10FA03D5F7EEB6
:10109800007A70EEA70AB7EEC07A9FED556BB4EEF2
:1010A800C67BF1EE10FA13D5B5EE000AB6EE006B6A
:1010B80030EE800A9FED507BB7EEC00A30EE460B4B
:1010C80030EE000B20EE070BB7EEC00B16F0E0BABF
:1010D8009FED4B6BB4EEC67BF1EE10FA23D5B6EE5E
:1010E800007AF5EE007A60EE870AF4EEE70AF1EE90
:1010F80010FA56D9F4EEC70AF1EE10FA64D9F6EEF2
:10110800087AF4EEE70AF1EE10FA66D870EEC70A2C
:10111800F9EE007A60EEA70AF0EE007ABFEE000A58
:10112800A0EEA70A70479FED386BB4EEC67BF1EED0
:1011380010FA1ED49FED366BB4EEC67BF1EE10FAB2
:1011480034D5F6EE007AB7EE007AF0EE006AE0EEFB
:10115800A77AB7EE000AF4EEC77AF1EE10FAC8BF24
:1011680077EEC77ABFEE007AA7EEA67AA7EE660AF0
:101178007047F6EE007AB7EE007ABFEE000AE0EEAE
:10118800A77AF0EE406AF4EEC77AF1EE10FAC8BF1B
:1011980077EEC77AB0EE007AE7EE876AA6EE870A9E
:1011A8007047F1EE007A60EEA70AB5E7B6EE007A6E
:1011B800F7EE007ABFEE000AF4EEC70AF1EE10FA75
:1011C80088BFB0EE670A704770EEE77AB1EE007A32
:1011D800F7EE000AE7EEC70A9EE770EEE77AB1EE8F
:1011E800007AF7EE000AE7EEC70AF1EE600A93E725
:1011F8009A9999999999C93F00000060FB21094083
:101208009A9999999999D93F333333333333E33FD3
:101218009A9999999999E93FFDEEE07AF8EEE77A7B
:1012280070EEE70AF5EEC00AF1EE10FA03D5F7EE14
:10123800007A70EEA70AB4EE007AB4EEC70AF1EEAF
:1012480010FA0FD5B7EEE00AB6EE006B9FED827B81
:1012580030EE460B30EE000B20EE070BB7EEC00B5E
:1012680016F016BAF5EE007AB4EEE70AF1EE10FAC7
:101278001BD5F4EEE70AF1EE10FA4AD9B6EE000AE9
:10128800F4EEC00AF1EE10FA40F29580F6EE087A14
:10129800F4EEE70AF1EE10FA00F2968030EEC00A9A
:1012A800F9EE000A20EE200A7047F5EE086AF6EE1D
:1012B800007AB4EEE60AF1EE10FA18D4B4EEE70AB2
:1012C800F1EE10FA2AD570EEA70AF7EE007ABFEE13
:1012D800000AF4EEE70AF1EE10FAC8BF70EEE70A6A
:1012E800F0EE007AA0EEA70AB1EE400A704770EE61
:1012F800A77AB7EE007ABFEE000AF4EEC77AF1EEED
:1013080010FAC8BF77EEC77AB0EE007AA7EE870A60
:101318007047B1EE000A20EE800A7047B6EE046A04
:10132800B4EEC60AF1EE10FA59D4B6EE087AB4EE65
:10133800C70AF1EE10FA72D59FED497AF4EEC70AA2
:10134800F1EE10FA68D9B4EE087AF4EEC70AF1EEB5
:1013580010FA73D9F5EE047AF4EEE70AF1EE10FA12
:1013680069D9F5EE0C7AF4EEE70AF1EE10FA68D9CD
:10137800F6EE027AF4EEE70AF1EE10FA4CD9F6EE40
:10138800067AF4EEE70AF1EE10FA5DD9F6EE0A7A7B
:10139800F4EEE70AF1EE10FA59D9B6EE0E7ADFED5F
:1013A800317ABEEE000AF4EEC70AF1EE10FA88BFF1
:1013B800B0EE670A704770EEE77AB1EE007AB7EEE2
:1013C800000AA7EEC70A704770EEE77AB1EE007A16
:1013D800B7EE000AA7EEC70AB1EE400A7047F4EE6E
:1013E800C70AF1EE10FA17D9F4EEE60AF1EE10FA90
:1013F80021D9F4EEC60AF1EE10FA0DD9B6EE0C7A40
:10140800DFED187ABFEE000AF4EEC70AF1EE10FA23
:1014180088BFB0EE670A70479FED120A7047F4EE76
:10142800E70ABFEE000AF7EE000AF1EE10FA88BFED
:10143800B0EE600A7047B7EE000A7047B0EE670A70
:101448007047B6EE000A7047BEEE000A7047BFEE5E
:10145800000A7047AFF3008000000060FB210940DC
:101468000000803D00000000274B0722F0B593E8FC
:10147800030087B000250B0C012702AE029048201C
:10148800ADF80C108DF80E308DF80F50CDE90062D4
:1014980014F01BFF1D4B04464563036000F138033D
:1014A80080F8385069460363303000F8147C15F032
:1014B8008CFA4FF081432420E360002363604FF0EF
:1014C8008243A360124BA362A3614FF07E53E36291
:1014D800636214F0FAFE0F4B4FF0FF32077023607F
:1014E800009BC460B34220610262C0E90155C0E9B3
:1014F8000455C0E9065504D002991846394414F039
:1015080089FE204607B0F0BD4080010854870108D5
:101518000AD7233C74870108264B0722F0B593E8C5
:10152800030087B000250B0C012702AE029048206B
:10153800ADF80C108DF80E308DF80F50CDE9006223
:1015480014F0C3FE1C4B04464563036000F13803E6
:1015580080F8385069460363303000F8147C15F081
:1015680034FA164B2420E36000236360144BA36015
:10157800144BA362A361144BE362636214F0A5FEEB
:10158800124B4FF0FF3207702360009BC460B342D8
:1015980020610262C0E90155C0E90455C0E9065559
:1015A80004D002991846394414F034FE204607B096
:1015B800F0BD00BF48800108548701080000FA44C4
:1015C80000401C470AD7233C0000484274870108A2
:1015D800264B0722F0B593E8030087B000250B0CD3
:1015E800012702AE02904820ADF80C108DF80E309D
:1015F8008DF80F50CDE9006214F067FE1C4B0446CD
:101608004563036000F1380380F838506946036386
:10161800303000F8147C15F0D8F94FF07E532420B0
:10162800E360E3626362134BA362A361124B6360DE
:10163800124BA36014F049FE114B4FF0FF320770B4
:101648002360009BC460B34220610262C0E9015577
:10165800C0E90455C0E9065504D002991846394432
:1016680014F0D8FD204607B0F0BD00BF4080010847
:10167800548701080AD7233C0000B0C20000B042DA
:1016880074870108264B0722F0B593E8030087B05A
:1016980000250B0C012702AE02904820ADF80C1073
:1016A8008DF80E308DF80F50CDE9006214F00DFE64
:1016B8001C4B04464563036000F1380380F838503A
:1016C80069460363303000F8147C15F07EF9002376
:1016D8002420E36063604FF07E53A360124BA36243
:1016E800A361124B6362124BE36214F0EEFD114BDF
:1016F8004FF0FF3207702360009BC460B342206143
:101708000262C0E90155C0E90455C0E9065504D094
:1017180002991846394414F07DFD204607B0F0BD03
:1017280040800108548701086F12833A0AD7233C86
:10173800CDCC4C3D64870108264B0722F0B593E8D1
:10174800030087B000250B0C012702AE0290482049
:10175800ADF80C108DF80E308DF80F50CDE9006201
:1017680014F0B3FD1C4B04464563036000F13803D5
:1017780080F8385069460363303000F8147C15F05F
:1017880024F94FF07E532420E360A360134BA36237
:10179800A361134B636200236360124BE36214F08E
:1017A80094FD114B4FF0FF3207702360009BC4601B
:1017B800B34220610262C0E90155C0E90455C0E99D
:1017C800065504D002991846394414F023FD2046E2
:1017D80007B0F0BD48800108548701086F12833AAA
:1017E8000AD7233CCDCC4C3D64870108274B072200
:1017F800F0B593E8030087B000250B0C012702AE73
:1018080002904820ADF80C108DF80E308DF80F506E
:10181800CDE9006214F059FD1D4B04464563036091
:1018280000F1380380F8385069460363303000F817
:10183800147C15F0CAF84FF07A532420E360002393
:1018480063604FF08243A360124BA362A361124B03
:101858006362124BE36214F038FD114B4FF0FF3214
:1018680007702360009BC460B34220610262C0E934
:101878000155C0E90455C0E9065504D00299184637
:10188800394414F0C7FC204607B0F0BD4080010879
:10189800548701086F12833A0AD7233CCDCC4C3DBC
:1018A80064870108264B0722F0B593E8030087B048
:1018B80000250B0C012702AE02904820ADF80C1051
:1018C8008DF80E308DF80F50CDE9006214F0FDFC54
:1018D8001C4B04464563036000F1380380F8385018
:1018E80069460363303000F8147C15F06EF84FF049
:1018F8007E532420E360E3626362134BA362A36117
:1019080000236360114BA36014F0DFFC104B4FF011
:10191800FF3207702360009BC460B34220610262FB
:10192800C0E90155C0E90455C0E9065504D002993B
:101938001846394414F06EFC204607B0F0BD00BFCD
:1019480040800108548701080AD7233C00007042F0
:1019580074870108FFF7A6BF264B0722F0B593E866
:10196800030087B000250B0C012702AE0290482027
:10197800ADF80C108DF80E308DF80F50CDE90062DF
:1019880014F0A3FC1C4B04464563036000F13803C4
:1019980080F8385069460363303000F8147C15F03D
:1019A80014F8164B2420E36000236360144BA360F3
:1019B800144BA362A361144BE362636214F085FCC9
:1019C800124B4FF0FF3207702360009BC460B34294
:1019D80020610262C0E90155C0E90455C0E9065515
:1019E80004D002991846394414F014FC204607B074
:1019F800F0BD00BF40800108548701080000FA4488
:101A080000401C470AD7233C00004842748701085D
:101A1800264B0722F0B593E8030087B000250B0C8E
:101A2800012702AE02904820ADF80C108DF80E3058
:101A38008DF80F50CDE9006214F047FC1C4B0446AA
:101A48004563036000F1380380F838506946036342
:101A5800303000F8147C14F0B8FF00232420E36031
:101A680063604FF08443A360124BA362A361124BDF
:101A78006362124BE36214F028FC114B4FF0FF3203
:101A880007702360009BC460B34220610262C0E912
:101A98000155C0E90455C0E9065504D00299184615
:101AA800394414F0B7FB204607B0F0BD4080010868
:101AB800548701086F12833A0AD7233CCDCC4C3E99
:101AC80064870108274B0722F0B593E8030087B025
:101AD80000250B0C012702AE02904820ADF80C102F
:101AE8008DF80E308DF80F50CDE9006214F0EDFB43
:101AF8001D4B04464563036000F1380380F83850F5
:101B080069460363303000F8147C14F05EFF4FF030
:101B18007E532420E360002363604FF08443A36076
:101B2800124BA362A361124B6362124BE36214F07F
:101B3800CCFB114B4FF0FF3207702360009BC46051
:101B4800B34220610262C0E90155C0E90455C0E909
:101B5800065504D002991846394414F05BFB204618
:101B680007B0F0BD48800108548701086F12833A16
:101B78000AD7233CCDCC4C3E64870108264B07226C
:101B8800F0B593E8030087B000250B0C012702AEDF
:101B980002904820ADF80C108DF80E308DF80F50DB
:101BA800CDE9006214F091FB1C4B044645630360C9
:101BB80000F1380380F8385069460363303000F884
:101BC800147C14F002FF4FF07E532420E360E3629C
:101BD8006362134BA362A36100236360114BA3608C
:101BE80014F073FB104B4FF0FF3207702360009B1B
:101BF800C460B34220610262C0E90155C0E90455DE
:101C0800C0E9065504D002991846394414F002FB7D
:101C1800204607B0F0BD00BF48800108548701087E
:101C28000AD7233C0000704274870108FFF7A6BF5B
:101C3800264B0722F0B593E8030087B000250B0C6C
:101C4800012702AE02904820ADF80C108DF80E3036
:101C58008DF80F50CDE9006214F037FB1C4B044699
:101C68004563036000F1380380F838506946036320
:101C7800303000F8147C14F0A8FE4FF07E53242076
:101C8800E360E3626362134BA362A361124B636078
:101C9800124BA36014F019FB114B4FF0FF32077081
:101CA8002360009BC460B34220610262C0E9015511
:101CB800C0E90455C0E9065504D0029918463944CC
:101CC80014F0A8FA204607B0F0BD00BF488001080C
:101CD800548701080AD7233C0000B0C20000B04274
:101CE80074870108274B0722F0B593E8030087B0F3
:101CF80000250B0C012702AE02904820ADF80C100D
:101D08008DF80E308DF80F50CDE9006214F0DDFA31
:101D18001D4B04464563036000F1380380F83850D2
:101D280069460363303000F8147C14F04EFE4FF01F
:101D380081432420E360002363604FF08243A36063
:101D4800124BA362A3614FF07E53E362636214F007
:101D5800BCFA0F4B4FF0FF3207702360009BC46042
:101D6800B34220610262C0E90155C0E90455C0E9E7
:101D7800065504D002991846394414F04BFA204607
:101D880007B0F0BD48800108548701080AD7233CF2
:101D980074870108274B0722F0B593E8030087B042
:101DA80000250B0C012702AE02904820ADF80C105C
:101DB8008DF80E308DF80F50CDE9006214F085FAD9
:101DC8001D4B04464563036000F1380380F8385022
:101DD80069460363303000F8147C14F0F6FD4FF0C8
:101DE8007C532420E360002363604FF08243A360A8
:101DF800124BA362A361124B6362124BE36214F0AD
:101E080064FA114B4FF0FF3207702360009BC460E7
:101E1800B34220610262C0E90155C0E90455C0E936
:101E2800065504D002991846394414F0F3F92046AF
:101E380007B0F0BD48800108548701086F12833A43
:101E48000AD7233CCDCC4C3D648701082DE9F043EB
:101E5800534B87B004224F68029302AC836A0E4644
:101E680001920022054669468DF80C203846D3F8C1
:101E78002C804C4B0094D3F8009014F0A6FD0098E9
:101E8800A042C7E9069803D00299013114F0C2F9BB
:101E9800454B0621F76801912A6B009493E80300EB
:101EA8000023029038468DF80E30404BADF80C10E8
:101EB8006946D2F83080D3F8009014F086FD009877
:101EC800A042C7E9069803D00299013114F0A2F99B
:101ED800374B0521376901916A6B009493E8030039
:101EE8000023029038468DF80D30324B8DF80C10D7
:101EF8006946D2F83080D3F8009014F066FD009857
:101F0800A042C7E9069803D00299013114F082F97A
:101F1800294B072177690191EA6B009493E8030044
:101F28000023ADF80C10090C8DF80F30234B0290EC
:101F380038468DF80E106946D2F83080D3F80090F4
:101F480014F043FD0098A042C7E9069803D002990F
:101F5800013114F05FF91A4BB669AA6B009493E843
:101F680003000723ADF80C10090C0193002302901D
:101F780030468DF80F30134B8DF80E106946156BEF
:101F88001F6814F022FD0098A042C6E9067503D028
:101F98000299013114F03EF907B0BDE8F08300BFA3
:101FA800676174658012002450800108F0110024D4
:101FB800588001083812002460800108642D00242C
:101FC80068800108602D00242DE9F04389B0D1F81C
:101FD8000480854A0F4604AC844906460A25D1F890
:101FE8000090234602944FF0000E07CA03C31A80DC
:101FF8004046736802A98DF81AE003951D6914F02C
:10200800E4FC0298A042C8E9069503D0049901317E
:1020180014F000F91323002201A902A80193D7F8AC
:102028003C80029414F04CFC019B0546DFF8C8C1C3
:102038004FF0000E02900493BCE80F00EB60BCF870
:10204800003028602B829CF802306960AA60AB746B
:10205800019B029A039302F803E033695A6B002A42
:1020680000F0B380D2F81C90404602A9DD6A14F053
:10207800ACFC0298A042C8E9069503D00499013146
:1020880014F0C8F81323002201A902A80193D7F875
:102098004080029414F014FC019B0546DFF85CC1F3
:1020A8004FF0000E02900493BCE80F00EB60BCF800
:1020B800003028602B829CF802306960AA60AB74FB
:1020C800019B029A039302F803E073695A6B002A92
:1020D80000F08680D2F81C90404602A9DD6A14F010
:1020E80074FC0298A042C8E9069503D0049901310E
:1020F80014F090F81323002201A902A80193D7F83D
:102108004480029414F0DCFB019B0546DFF8F0C024
:102118004FF0000E02900493BCE80F00EB60BCF88F
:10212800003028602B829CF802306960AA60AB748A
:10213800019B029A039302F803E0B3695A6B002AE1
:102148004AD0D2F81C90404602A9DD6A14F03DFC42
:102158000298A042C8E9069503D00499013114F009
:1021680059F8132301A9002202A8D7F8488001933F
:102178001F4F029414F0A4FB019B054602904FF0F8
:10218800000C04930FCFEB603B8828602B82BB7850
:102198006960AA60AB74019B029A039302F803C0BA
:1021A800F3695A6BAAB1D669404602A9DD6A14F0F0
:1021B8000CFC0298A042C8E9066503D004990131D5
:1021C80014F028F809B0BDE8F0830A4AD2F8009064
:1021D8004AE7084A1668E7E7064AD2F80090B2E7E5
:1021E800044AD2F8009077E770800108482D00244F
:1021F800B88001080C2C00247C800108908001081C
:10220800A48001082DE9F047654B86B005460522F4
:102218000E4602AC0192002277688DF80D200094DA
:1022280093E80300EB69029038468DF80C10694674
:10223800D3F830805B4BD3F8009014F0C6FB0098BD
:10224800A042C7E9069803D00299013113F0E2FFD2
:1022580055492346554A0A27D1F800904FF0000EF9
:10226800D6F80C80009407CA03C31A8040462B6A2C
:1022780069468DF812E001971F6914F0A6FB0098D3
:10228800A042C8E9069703D00299013113F0C2FFB2
:10229800474B0621376901912A6B009493E80300A4
:1022A8000023029038468DF80E30424BADF80C10E2
:1022B8006946D2F83080D3F8009014F086FB009875
:1022C800A042C7E9069803D00299013113F0A2FF92
:1022D80039492346394A0B27D1F800904FF0000EB0
:1022E8000094D6F8148007CA03C323F8022B120CF3
:1022F800404669461A70EB6A8DF813E001971F6B28
:1023080014F063FB0098A042C8E9069703D002992D
:10231800013113F07FFF2A4B0521F76901916A6AA1
:10232800DFF8A4800094D8F8009093E80300002315
:10233800029038468DF80C1069468DF80D30D2F8A9
:1023480030A014F042FB0098A042C7E9069A03D0D7
:102358000299013113F05EFF1A4A2346366A4FF09C
:102368000A0CAD6A4FF0000E0094D8F8007007CA46
:1023780003C330461A8069468DF812E0CDF804C0D0
:10238800ED6A14F022FB0098A042C6E9067503D056
:102398000299013113F03EFF06B0BDE8F08700BF97
:1023A800EC850108C41F0024882D0024CC80010876
:1023B800D88001084C120024502D0024E080010828
:1023C800EC800108F4800108841200244D4B03229C
:1023D8002DE9F0431B6889B04D680F46ADF8103001
:1023E8001B0C039200228DF8123004AC03690646D8
:1023F8008DF813202846D3F8308002A9424B029466
:10240800D3F8009014F0E1FA0298A042C5E90698C2
:1024180003D00499013113F0FDFE3C4B0821BD683F
:1024280003917269029493E80300002384E803008F
:102438008DF818302846364B02A9D2F83080D3F8E8
:10244800009014F0C2FA0298A042C5E9069803D099
:102458000499013113F0DEFEF3692E491A782E4BE8
:102468000294002A08BF1946D7F80C800846019143
:10247800FDF738FF0546019920462A4615F062FC0B
:1024880008AB03951D44002305F8103CF3691A783E
:10249800002A33D0214AD2F80090404602A95D684C
:1024A80014F093FA0298A042C8E9069503D004995B
:1024B800013113F0AFFE1A4923461A4A4FF00A0CAD
:1024C8003D694FF0000E0F68F668029407CA03C30F
:1024D80028461A8002A98DF81AE0CDF80CC0F66AD1
:1024E80014F073FA0298A042C5E9067603D004995D
:1024F800013113F08FFE09B0BDE8F0830A4AD2F823
:102508000090CAE7108101081812002414810108FC
:10251800481200240481010800810108782D002454
:102528008012002420810108742D00242DE9F04335
:10253800594B89B0054606220F4604AC0392002287
:102548007E688DF81620029493E803006B68049067
:102558003046ADF8141002A9D3F82C804F4BD3F8AD
:10256800009014F032FA0298A042C6E9069803D007
:102578000499013113F04EFEAB6849491A78494B6A
:102588000294002A08BF1946D7F808800846019126
:10259800FDF7A8FE064601992046324615F0D2FB03
:1025A80008AB03961E44002306F8103CAB681A7863
:1025B800002A6CD03C4AD2F80090404602A95E68D6
:1025C80014F003FA0298A042C8E9069603D00499C9
:1025D800013113F01FFE354B05213E6903912A692D
:1025E800029493E803000023049030468DF81530D8
:1025F8002F4B8DF8141002A9D2F83080D3F8009030
:1026080014F0E3F90298A042C6E9069803D00499A9
:10261800013113F0FFFD274B08217E690391AA6958
:10262800029493E80300002384E803008DF818302F
:102638003046214B02A9D2F83080D3F8009014F02C
:10264800C4F90298A042C6E9069803D0049901315A
:1026580013F0E0FD194B02A9BE6904930423EA694B
:1026680030460393002302948DF81430144B156BF5
:102678001F6814F0AAF90298A042C6E9067503D0AB
:102688000499013113F0C6FD09B0BDE8F0830D4A85
:10269800D2F8009091E700BF40810108642D002422
:1026A8002C8101083481010840120024EC850108BE
:1026B800C41F0024488101087012002474696D65E4
:1026C8007C2D00243C1200242DE9F0435B4B89B09B
:1026D800054606220E4604AC0392002277688DF860
:1026E8001620029493E80300EB6B04903846ADF88B
:1026F800141002A9D3F83080514BD3F8009014F08D
:1027080064F90298A042C7E9069803D004990131F8
:1027180013F080FD4B4923464B4A0B27D1F8009014
:102728004FF0000E0294D6F8088007CA03C323F8B6
:10273800022B120C404602A91A702B6C8DF81BE074
:1027480003971F6B14F041F90298A042C8E9069755
:1027580003D00499013113F05DFD04223B492B6B32
:10276800F76802943846CDE90321002202A98DF8C2
:102778001420D3F82C80364BD3F8009014F025F9A8
:102788000298A042C7E9069803D00499013113F0D2
:1027980041FD30492346304A4FF00A0CD1F80090E9
:1027A8004FF0000E3769029407CA03C31A803846EF
:1027B8006B6C02A98DF81AE0CDF80CC0D3F8108024
:1027C80014F003F90298A042C7E9069803D00499C7
:1027D800013113F01FFD6B6B20491A78204B776984
:1027E800002A08BF1946029408460191FDF77AFDB0
:1027F800064601992046324615F0A4FA08AA6B6BE2
:1028080003961644002206F8102C1A7892B1154A3D
:102818001668384602A95D6814F0D7F80298A042F5
:10282800C7E9066503D00499013113F0F3FC09B038
:10283800BDE8F0830C4A1668EBE700BF7081010819
:102848004C2D0024502D0024E08001086761746538
:1028580080120024882D0024CC80010854810108AE
:102868006081010814120024802D00242DE9F04F06
:10287800D1F8048087B00E460C21944A02AC01912D
:102888000021436805468DF81410914F0094D7F83D
:1028980000A007CA84E8070040466946D3F830908C
:1028A80014F093F80098A042C8E906A903D0029949
:1028B800013113F0AFFC874AD6F83C90AB6800941E
:1028C800DFF8308292E803000822D8F800A084E8F4
:1028D800030001920022484669468DF81020D3F87B
:1028E8002CB014F072F80098A042C9E906AB03D0E6
:1028F8000299013113F08EFC774AD6F84090EB68C4
:10290800D7F800A0009492E803000722ADF80C1055
:10291800090C01920022029048468DF80E10694673
:102928008DF80F20D3F830B014F04FF80098A0427B
:10293800C9E906AB03D00299013113F06BFC674A71
:10294800D6F874902B690094D8F800A092E8030098
:10295800082284E8030001920022484669468DF85F
:102968001020D3F82CB014F030F80098A042C9E930
:1029780006AB03D00299013113F04CFC584AD6F843
:1029880078906B69D7F800A0009492E803000722BA
:10299800ADF80C10090C01920022029048468DF8FF
:1029A8000E1069468DF80F20D3F830B014F00DF8EA
:1029B8000098A042C9E906AB03D00299013113F08F
:1029C80029FC484AD6F8AC90AB690094D8F800A026
:1029D80092E80300082284E8030001920022484696
:1029E80069468DF81020D3F82CB013F0EEFF00984C
:1029F800A042C9E906AB03D00299013113F00AFCE1
:102A0800394AD6F8B090EB69D7F800A0009492E85C
:102A180003000722ADF80C10090C01920022029065
:102A280048468DF80E1069468DF80F20D3F830B05F
:102A380013F0CBFF0098A042C9E906AB03D0029976
:102A4800013113F0E7FB294A0821D8F800A00191C9
:102A5800D6F8E4802B6A009492E80300002284E808
:102A68000300404669468DF81020D3F82C9013F0E7
:102A7800ACFF0098A042C8E906A903D00299013129
:102A880013F0C8FB1A4B0721D6F8E86001916A6A6F
:102A98003F68009493E803000023ADF80C10090C7C
:102AA800029030468DF80E1069468DF80F30156B80
:102AB80013F08BFF0098A042C6E9067503D002996F
:102AC800013113F0A7FB07B0BDE8F08F788101084A
:102AD800C41F002488810108948101089C81010891
:102AE800A8810108B0810108BC810108C4810108DE
:102AF800D0810108642D00242DE9F0477A4B8AB073
:102B0800054606220F4606AC059200227E688DF81F
:102B18001E20049493E803006B6806903046ADF8D5
:102B28001C1004A9D3F82C80704BD3F8009013F034
:102B38004CFF0498A042C6E9069803D006990131D3
:102B480013F068FBAB696A491A786A4B0494002A47
:102B580008BF1946D7F8088008460191FDF7C2FB5F
:102B6800064601992046324615F0ECF80AAB059660
:102B78001E44002306F8103CAB691B78002B00F0BC
:102B8800AF805D4BD3F800905C4B404604A91B68AE
:102B9800D3F8F4305E6813F018FF0498A042C8E92F
:102BA800069603D00699013113F034FB1323002253
:102BB80003A904A8D7F810804FF0000903930494E0
:102BC80013F07EFE039B0646DFF848C10490069387
:102BD800DFF844E1BCE80F00F360BCF80030306077
:102BE800404633829CF80230716004A9B374B26025
:102BF800039B049A059302F80390AB68DEF80090F3
:102C08001E6B13F0E2FE0498A042C8E9069603D0B2
:102C18000699013113F0FEFA39492346394A092643
:102C2800D1F800904FF0000ED7F81480049407CA2A
:102C380003C31A704046EB6804A98DF821E0059695
:102C48001E6B13F0C2FE0498A042C8E9069603D092
:102C58000699013113F0DEFA2B4B0521FE69059127
:102C68002A69DFF8B8800494D8F8009093E8030044
:102C78000023069030468DF81C1004A98DF81D30ED
:102C8800D2F830A013F0A1FE0498A042C6E9069A33
:102C980003D00699013113F0BDFA1C4A23463E6A57
:102CA8004FF00A0C6D694FF0000E0494D8F80070CC
:102CB80007CA03C330461A8004A98DF822E0CDF86C
:102CC80014C0ED6A13F081FE0498A042C6E90675A7
:102CD80003D00699013113F09DFA0AB0BDE8F087D8
:102CE8000B4BD3F800904FE740810108642D002476
:102CF8002C810108348101086C120024202D002445
:102D0800602D0024EC810108EC800108F4800108A2
:102D180068120024D8810108702D00248412002430
:102D28002DE9F04F964D89B0804601F13C0605F13A
:102D3800380704AC0191BA4655F8043B02A813B30E
:102D48009A6802945968D6F800900A44FDF72EFF55
:102D580055F8043CD8F8342002A9D3E907B09A42C0
:102D680008BF83461B6B4846009313F02EFE02985B
:102D7800009BA042C9F818B0C9F81C3003D00499C8
:102D8800013113F047FA57F8043B02A813B39A68C5
:102D980002945968D6F838900A44FDF707FF57F8A7
:102DA800043CD8F8342002A9D3E907B09A4208BFF6
:102DB80083461B6B4846009313F007FE0298009B5E
:102DC800A042C9F818B0C9F81C3003D004990131E1
:102DD80013F020FAAA4506F10406ADD1694D019B0E
:102DE80005F1380703F1AC06BA4655F8043B02A8CA
:102DF80013B39A6802945968D6F800900A44FDF70C
:102E0800D5FE55F8043CD8F8342002A9D3E907B018
:102E18009A4208BF83461B6B4846009313F0D5FDC2
:102E28000298009BA042C9F818B0C9F81C3003D01A
:102E38000499013113F0EEF957F8043B02A813B3D3
:102E48009A6802945968D6F838900A44FDF7AEFE9D
:102E580057F8043CD8F8342002A9D3E907B09A42BD
:102E680008BF83461B6B4846009313F0AEFD0298DB
:102E7800009BA042C9F818B0C9F81C3003D00499C7
:102E8800013113F0C7F9AA4506F10406ADD1D8F807
:102E98002030BBB1019B02A83B495D68FDF754FE99
:102EA800D8F8203002A928461E69384B1F6813F04D
:102EB8008CFD0298A042C5E9067603D00499013139
:102EC80013F0A8F9D8F82430BBB1019B02A8304907
:102ED8009D68FDF739FED8F8243002A928461E69F6
:102EE8002C4B1F6813F071FD0298A042C5E90676C5
:102EF80003D00499013113F08DF9D8F82850FDB1A9
:102F0800019B4FF00A0C24494FF0000E234ADE685B
:102F180023460F68029407CA03C330461A8002A9E1
:102F28008DF81AE0CDF80CC0ED6A13F04EFD02984A
:102F3800A042C6E9067503D00499013113F06AF975
:102F4800019B02A9164AD3F81C510423029428466F
:102F5800CDE90332134B00221F68134B8DF8142060
:102F6800D3F8346D13F031FD0298A042C5E9067616
:102F780003D00499013113F04DF909B0BDE8F08F81
:102F88003C2C0024AC2C0024F8810108FC2B0024E4
:102F980048800108582D00248C2D0024088201083F
:102FA8006E6F6E651C120024881200242DE9F0470C
:102FB8007C4B88B0054606220E4604AC03920022DC
:102FC80077688DF81620029493E803006B680490E4
:102FD8003846ADF8141002A9D3F82C80724BD3F8F8
:102FE800009013F0F2FC0298A042C7E9069803D0BB
:102FF8000499013113F00EF9AB686C491A786C4BDF
:103008000294002A08BF1946D6F80880084601919C
:10301800FDF768F90746019920463A4614F092FEF2
:1030280008AB03971F44002307F8103CAB681A78D5
:10303800002A00F0B3805F4AD2F80090404602A907
:103048005F6813F0C2FC0298A042C8E9069703D053
:103058000499013113F0DEF8574B052137690391C4
:103068002A69029493E803000023049038468DF8F7
:103078001530524B8DF8141002A9D2F83080D3F8CD
:10308800009013F0A2FC0298A042C7E9069803D06A
:103098000499013113F0BEF8494B0821776903916F
:1030A8006A69029493E80300002384E803008DF81A
:1030B80018303846434B02A9D2F83080D3F8009034
:1030C80013F083FC0298A042C7E9069803D004993C
:1030D800013113F09FF83C4AA4463C4B0D27D2F827
:1030E80000904FF0000AD6F8188002940FCBACE895
:1030F80007008CF800304046EB6902A98DF81DA046
:1031080003971F6B13F061FC0298A042C8E9069769
:1031180003D00499013113F07DF82D4923462D4A37
:103128000927D1F800904FF0000ED6F81C800294C1
:1031380007CA03C31A704046AB6902A98DF819E0A3
:1031480003971F6B13F041FC0298A042C8E9069749
:1031580003D00499013113F05DF81F4B0294366ACD
:103168002A6A93E80300082384E803000DEB0301AF
:103178000393002330468DF81830184B156B1F68E1
:1031880013F023FC0298A042C6E9067503D00499FF
:10319800013113F03FF808B0BDE8F087104AD2F8C3
:1031A80000904BE740810108642D00242C81010820
:1031B80034810108542D0024EC850108C41F002423
:1031C80074850108702D00246812002414820108F7
:1031D8004412002424820108488101087012002446
:1031E800502D00242DE9F04786B00D460646C54906
:1031F80068466C68FDF7A8FCC34B776A2046D3F88D
:103208000080694613F0E1FB0098C4E9068702AC28
:10321800A04203D00299013112F0FCFFD6F8EC313C
:103228006846BA4A1978BA4BEF68002914BF1146A4
:103238001946FDF789FCD6F8EC311A78002A00F017
:103248009682B44AD2F8009038466946D3F804808A
:1032580013F0BBFB0098A042C7E9069803D0029977
:10326800013112F0D7FFD6F8EC311B78002B00F0B3
:103278008282EF6B6846A849FDF766FCA74B384683
:103288006946D3F80090D6F8608013F09EFB00984A
:10329800A042C7E9069803D00299013112F0BAFF9B
:1032A8002F6C68469E49FDF74FFC9E4B3846694691
:1032B800D3F80090D6F89C8013F087FB0098A042C2
:1032C800C7E9069803D00299013112F0A3FF0C2236
:1032D800954B6F6C0192002200948DF81420934A4C
:1032E800D6F8D880D2F8009093E8070084E8070061
:1032F8003846694613F069FB0098A042C7E906986A
:1033080003D00299013112F085FFD5F84C80684648
:103318008749FDF719FC874FD6F8C43140466946FE
:10332800D7F80090D3F82CA013F04FFB0098A042D8
:10333800C8E9069A03D00299013112F06BFFD5F85B
:10334800508068467C49FDF7FFFBD6F8C8314046F7
:103358006946D3F82CA0D7F8049013F036FB0098F0
:10336800A042C8E9069A03D00299013112F052FF2F
:10337800D5F8548068467149FDF7E6FBD6F8CC319C
:1033880040466946D3F82CA0D7F8089013F01DFBE7
:103398000098A042C8E9069A03D00299013112F0B8
:1033A80039FFD5F8588068466549FDF7CDFBD6F852
:1033B800D03140466946D3F82CA0D7F80C9013F0CA
:1033C80004FB0098A042C8E9069A03D0029901318B
:1033D80012F020FFD5F85C8068465A49FDF7B4FB27
:1033E800D6F8D43140466946D7F81090DF6A13F012
:1033F800ECFA0098A042C8E9069703D00299013177
:1034080012F008FF6F6E68464F49FDF79DFBDFF825
:103418005881D6F8D83138466946D8F80090D3F89C
:1034280038A013F0D2FA0098A042C7E9069A03D050
:103438000299013112F0EEFEAF6E68464349FDF77E
:1034480083FBD6F8DC3138466946D8F80490D3F8BF
:10345800388013F0BAFA0098A042C7E9069803D05A
:103468000299013112F0D6FE6F6F68463849FDF7B0
:103478006BFB384B38466946D3F80090D6F8108174
:1034880013F0A3FA0098A042C7E9069803D002995E
:10349800013112F0BFFEAF6F68462F49FDF754FBAC
:1034A8002E4B38466946D3F80090D6F8608113F061
:1034B8008CFA0098A042C7E9069803D00299013116
:1034C80012F0A8FE264B0522EF6FD6F8348100943F
:1034D800019293E803000023029038468DF80D30DE
:1034E800204B8DF80C106946D3F8009013F06DFA54
:1034F8000098A042C7E9069838D00299013112F025
:1035080089FE33E0588201087C2D002430820108AE
:1035180040820108F82B00246C820108282D002421
:103528007C8201082C2D00248C820108302D002477
:103538009C82010850120024A8820108B482010864
:10354800C0820108CC820108D8820108E082010803
:10355800E882010868120024F0820108502D002436
:10356800F88201083C120024C81F0024D5F8847092
:1035780068468E49FDF7E8FA8D4B38466946D3F818
:103588000090D6F8908113F020FA0098A042C7E97D
:10359800069803D00299013112F03CFED5F88870E4
:1035A80068468449FDF7D0FA834B38466946D6F811
:1035B800C061D3F8008013F008FA0098A042C7E968
:1035C800068603D00299013112F024FE7B49684631
:1035D800D5F8AC70FDF7B8FA794E6946794B38469C
:1035E800D3F80090D6F8183DD3F82C8013F0EDF9F5
:1035F8000098A042C7E9069803D00299013112F059
:1036080009FE71496846D5F8B070FDF79DFAD6F8FD
:103618001C3D69463846D3F82C806C4BD3F8009093
:1036280013F0D3F90098A042C7E9069803D002998D
:10363800013112F0EFFD66496846D5F8B470FDF720
:1036480083FAD6F8203D69463846D3F82C80614B7A
:10365800D3F8009013F0B9F90098A042C7E906988A
:1036680003D00299013112F0D5FD5B496846D5F8BF
:10367800B870FDF769FAD6F8243D69463846D3F89C
:103688002C80564BD3F8009013F09FF90098A04275
:10369800C7E9069803D00299013112F0BBFD5049E1
:1036A8006846D5F8C070FDF74FFAD6F8283D694648
:1036B8003846D3F82C804B4BD3F8009013F085F99B
:1036C8000098A042C7E9069803D00299013112F088
:1036D800A1FD45496846D5F8C870FDF735FAD6F812
:1036E8002C3D69463846D3F82C80404BD3F80090DF
:1036F80013F06BF90098A042C7E9069803D0029925
:10370800013112F087FD3A496846D5F8CC70FDF7CB
:103718001BFAD6F8303D69463846DE6A354BD3F891
:10372800008013F052F90098A042C7E9068603D03A
:103738000299013112F06EFDD5F8E45068462E4921
:10374800FDF702FA2D4A2E4B284669461768D3F82A
:103758000C6113F03AF90098A042C5E9067603D047
:103768000299013112F056FD06B0BDE8F087254AEE
:10377800D2F8009068E5244968462F69FDF7E4F916
:10378800D6F8F03169463846D3F830801F4BD3F865
:10379800009013F01AF90098A042C7E906983FF480
:1037A80068AD0299013112F035FD62E50083010828
:1037B800002C002408830108042C0024108301082D
:1037C80088120024041200241C8301080812002413
:1037D800288301080C1200243483010810120024E5
:1037E80040830108801200244C8301083012002411
:1037F8005883010834120024648301080C2C002427
:10380800102C0024F42B002460820108242D0024AD
:103818002DE9F84381EAE1740546CE0FA4EBE17483
:10382800092C73D9632C4DD9B4F57A7F7BD342F236
:103838000F739C4274D92046012105E0634555D990
:10384800734559D343455CD90346384A384F8946AE
:10385800A2FB0302DFF8E4C0BB42DFF8E4E0DFF8D4
:10386800E4804FEA523001F10401E7D809F1030777
:10387800314405F1080328462D222B6013F08BF8FC
:103888002B682C481E44F1192B4B6422A44642F2A3
:103898000F77A3FB04E30239BC454FEA531302FB3D
:1038A80013421C4600EB420310F812205B784A7062
:1038B8008B70E9D8BCF57A7F0ED230342846347044
:1038C800BDE8F88300F10803B11C2D22036013F052
:1038D80062F82B6817481E4400EB440310F81420C4
:1038E80028465B7832707370BDE8F88309F10509E2
:1038F8000F4609EB0601BCE709F1060109F10507C6
:10390800B6E709F1070109F10607B1E700F1080375
:10391800711C2D22036013F03EF82B681E44CCE77F
:1039280003270421A4E702270321A1E75917B7D1E8
:103938009F8601008C8701081F85EB513F420F00CD
:1039480080969800FFE0F505D1ED037ADFEDB26AC5
:10395800BDEEE77A2DE9F047B8EEC77A0E46A6B075
:10396800096B726B054677EEC77A04AF0A4402A862
:10397800029767EEA67AFDEEE77A17EE904A002CDA
:10398800B8BF6442FDF712F96FF04043039A9B1ADF
:10399800012B40F23E810222A04902A813F0F6F85A
:1039A800D6ED037A08A8FDEEE77A17EE901AFFF72E
:1039B8002FFF029B039EBB42099A14BF04990F2153
:1039C800B018884208990AD90DF1280C614514BF2E
:1039D800DDF828C04FF00F0C604540F2BF8002A808
:1039E8000DF1400813F0D2F80646CDF83880844629
:1039F80056F8083BB34200F0F9800E9383681093A1
:103A0800DCF804300F930023CCF80060CCF80430C5
:103A18008CF808300F9A6FF040439A4200F0F98012
:103A280001227F490EA816AE13F0B0F88646149608
:103A380084465EF8083B734500F0B38014938368AE
:103A48001693DCF804300022092C15938CF8082012
:103A5800CCF800E0CCF8042078DD724914A80DF108
:103A6800700913F093F88646CDF8689084465EF89E
:103A7800083B734500F0AF801A9383681C93DCF809
:103A88000430214620A822AC1B930023CCF800E088
:103A9800CCF804308CF80830FFF7BAFE1A9BDDF832
:103AA8006CC04B45219A14BF1C990F210CEB0200E6
:103AB8008842209907D9A14214BFDDF888E04FF069
:103AC8000F0E704565D91AA813F060F8034605F182
:103AD8000801296053F8082B9A426DD02A60826841
:103AE800AA60036043686B600023037243602098F8
:103AF800A04203D02299013112F08CFB1A98484554
:103B080003D01C99013112F085FB1498B04203D000
:103B18001699013112F07EFB0E98404503D010999A
:103B2800013112F077FB08980AAB984203D00A9942
:103B3800013112F06FFB0298B84203D004990131A9
:103B480012F068FB284626B0BDE8F087159A6FF09A
:103B580040439A425DD0012233497FE70022009614
:103B680008A80DF14008114612F092FF8446CDF8DE
:103B7800388006465CF8083B63453FD00E9383685F
:103B8800109373680F930023C6F800C073603372F4
:103B980040E7002220A8CDF800C0114612F078FFB7
:103BA80094E7B1468068DEF80410DEF80820DEF8F5
:103BB8000C30A9E80F0044E7D0F808A0D3F804E0D7
:103BC800D3F808C0DA68C5F808A0C5F80CE0C5F84D
:103BD80010C06A6185E7CA468068DEF80410DEF81E
:103BE8000820DEF80C30AAE80F0048E7C6468068CF
:103BF8007168B268F368AEE80F0001E7C6468068EE
:103C0800DCF80410DCF80820DCF80C30AEE80F0013
:103C1800B7E7064812F04CFE0000C842948301083A
:103C2800988301082C920108788301087C83010895
:103C3800D1ED037A9FEDB97A67EE877A2DE9F047DF
:103C4800FDEEE77AB64C054664270E46ACB017EE93
:103C5800903A096B726B84FB0340DC170A44C4EB8F
:103C6800601402A807FB143304AF83EAE3740297D5
:103C7800A4EBE374FCF79AFF6FF04043039A9B1A96
:103C8800012B40F293810222A64902A812F07EFF7E
:103C9800D6ED037A9FEDA47A08A867EE877AFDEE41
:103CA800E77A17EE901AFFF7B3FD029B039EBB421B
:103CB800099A14BF04990F21B018884208990AD9A3
:103CC8000DF1280C614514BFDDF828C04FF00F0C2A
:103CD800604540F2EC8002A80DF1400812F056FF52
:103CE8000646CDF83880844656F8083BB34200F0C3
:103CF8004A810E9383681093DCF804300F930023F5
:103D0800CCF80060CCF804308CF808300F9A6FF0CB
:103D180040439A4200F04A81012284490EA816AE17
:103D280012F034FF8646149684465EF8083B7345C5
:103D380000F00481149383681693DCF804300022A1
:103D4800092C15938CF80820CCF800E0CCF8042056
:103D580040F3A480764914A80DF1700912F016FFFB
:103D68008646CDF8689084465EF8083B734500F0B7
:103D7800F0801A9383681C93DCF80430214620A84D
:103D88001B930023CCF800E0CCF804308CF8083002
:103D9800FFF73EFD1A9B1B9C4B45219A14BF1C99AB
:103DA8000F21A018884220990AD90DF1880C614585
:103DB80014BFDDF888C04FF00F0C604540F29280C8
:103DC8001AA828AC12F0E2FE8646269484465EF8CD
:103DD800083B734500F095802693DCF8083028935B
:103DE800DCF8043027930023CCF800E0CCF804304A
:103DF8008CF808306FF04043279A9A4200F0D6803A
:103E080001224C4926A812F0C1FE05F1080103461B
:103E1800296053F8082B9A4200F0A6802A6082682D
:103E2800AA60036043686B600023436003722698AE
:103E3800A04203D02899013112F0ECF9209822AB66
:103E4800984203D02299013112F0E4F91A984845B2
:103E580003D01C99013112F0DDF91498B04203D057
:103E68001699013112F0D6F90E98404503D01099F1
:103E7800013112F0CFF908980AAB984203D00A9999
:103E8800013112F0C7F90298B84203D00499013100
:103E980012F0C0F928462CB0BDE8F087159A6FF0EB
:103EA80040439A4200F082800122234953E70022CE
:103EB800009608A80DF14008114612F0E9FD844665
:103EC800CDF8388006465CF8083B634563D00E930E
:103ED8008368109373680F930023C6F800C073605B
:103EE800337213E70022009420A828AC114612F080
:103EF800CFFD8646269484465EF8083B73457FF4DA
:103F08006BAFA246DCF80800DEF80410DEF80820E3
:103F1800DEF80C30AAE80F0062E700BF0050C34784
:103F28001F85EB51948301080000C842988301085B
:103F38002C9201089C83010878830108B1468068A7
:103F4800DEF80410DEF80820DEF80C30A9E80F00CF
:103F5800F3E6CA468068DEF80410DEF80820DEF8CA
:103F68000C30AAE80F0007E7D0F808A0D3F804E05F
:103F7800D3F808C0DA68C5F808A0C5F80CE0C5F899
:103F880010C06A614DE7C64680687168B268F36818
:103F9800AEE80F00B0E6C6468068DCF80410DCF82E
:103FA8000820DCF80C30AEE80F0093E7014812F067
:103FB8007FFC00BF7C830108D1ED037A9FEDB97ABD
:103FC80067EE877A2DE9F047FDEEE77AB64C0546AD
:103FD80064270E46ACB017EE903A096B726B84FBFF
:103FE8000340DC170A44C4EB601402A807FB14332F
:103FF80004AF83EAE3740297A4EBE374FCF7D6FDFD
:104008006FF04043039A9B1A012B40F293810222DE
:10401800A64902A812F0BAFDD6ED037A9FEDA47A5C
:1040280008A867EE877AFDEEE77A17EE901AFFF791
:10403800EFFB029B039EBB42099A14BF04990F2110
:10404800B018884208990AD90DF1280C614514BFA7
:10405800DDF828C04FF00F0C604540F2EC8002A854
:104068000DF1400812F092FD0646CDF838808446DE
:1040780056F8083BB34200F04A810E9383681093C8
:10408800DCF804300F930023CCF80060CCF804303F
:104098008CF808300F9A6FF040439A4200F04A813A
:1040A800012284490EA816AE12F070FD86461496B9
:1040B80084465EF8083B734500F0048114938368D6
:1040C8001693DCF804300022092C15938CF808208C
:1040D800CCF800E0CCF8042040F3A480764914A87A
:1040E8000DF1700912F052FD8646CDF868908446AD
:1040F8005EF8083B734500F0F0801A9383681C93C0
:10410800DCF80430214620A81B930023CCF800E0FB
:10411800CCF804308CF80830FFF77AFB1A9B1B9C0C
:104128004B45219A14BF1C990F21A0188842209949
:104138000AD90DF1880C614514BFDDF888C04FF02D
:104148000F0C604540F292801AA828AC12F01EFDB0
:104158008646269484465EF8083B734500F09580B1
:104168002693DCF808302893DCF8043027930023E2
:10417800CCF800E0CCF804308CF808306FF04043FD
:10418800279A9A4200F0D68001224C4926A812F0BC
:10419800FDFC05F108010346296053F8082B9A42F3
:1041A80000F0A6802A608268AA60036043686B609A
:1041B8000023436003722698A04203D02899013156
:1041C80012F028F8209822AB984203D022990131A6
:1041D80012F020F81A98484503D01C99013112F0C2
:1041E80019F81498B04203D01699013112F012F858
:1041F8000E98404503D01099013112F00BF8089839
:104208000AAB984203D00A99013112F003F80298D8
:10421800B84203D00499013111F0FCFF28462CB0B4
:10422800BDE8F087159A6FF040439A4200F082800B
:104238000122234953E70022009608A80DF14008FF
:10424800114612F025FC8446CDF8388006465CF805
:10425800083B634563D00E938368109373680F938C
:104268000023C6F800C07360337213E7002200947D
:1042780020A828AC114612F00BFC864626948446EA
:104288005EF8083B73457FF46BAFA246DCF8080084
:10429800DEF80410DEF80820DEF80C30AAE80F007B
:1042A80062E700BF0050C3471F85EB5194830108A4
:1042B8000000C842988301082C9201089C830108D9
:1042C80078830108B1468068DEF80410DEF808201B
:1042D800DEF80C30A9E80F00F3E6CA468068DEF87D
:1042E8000410DEF80820DEF80C30AAE80F0007E713
:1042F800D0F808A0D3F804E0D3F808C0DA68C5F805
:1043080008A0C5F80CE0C5F810C06A614DE7C646BC
:1043180080687168B268F368AEE80F00B0E6C64618
:104328008068DCF80410DCF80820DCF80C30AEE813
:104338000F0093E7014812F0BBFA00BF7C83010825
:1043480030B5034601F140050C68103151F80CEC0A
:10435800103351F808CC51F8042CA94243F8104CFA
:1043680043F80CEC43F808CC43F8042CECD130BDEE
:1043780030B500F1080400F14805A4F108038C46A3
:104388009CF800E00AB18EF0010E03F801EBA3429D
:104398000CF1010CF4D103F108040831AC42ECD162
:1043A80030BD00BF70B54FF0FF33002604460D4600
:1043B800036206704160C0E90266C0E90466C0E9AC
:1043C800066671B13346084A0849284611F024FFA9
:1043D8000146334628466161054A044911F01CFF2D
:1043E80005462046A56070BDAC880108988601087E
:1043F800A886010810B501F5A87C01F5C47E0A60FD
:10440800ACF5A8735A68383300246345D461F9D1F0
:1044180003F1040CF445F3D10368BDE810401B68B0
:10442800184700BF2DE9F0414FF0FF33804600F5F3
:10443800A87600F5C4770360A6F5A875202038355E
:1044480011F043FF04462022002113F0A3FC0022B0
:1044580004F10803B54245F8344C22722360EDD1CB
:104468002E1DBE42E8D14046BDE8F0810D4B00222A
:1044780010B4D3E902105C68DA631A651A695863E4
:104488009A63986AC3E90B4159695C6A1964D3E96C
:104498000621C3E915405A641A6A5DF8044BC3E95A
:1044A80012127047102C00242DE9F04F994603682A
:1044B80083B00E461B694946804615469847B9F1B0
:1044C800000F00F0D1802B1F0024DFF8F8B10C3565
:1044D800774F01933368F7EE006ADBF81420B6EEE5
:1044E800007A03EB840310464FEA840AD3ED007A7E
:1044F80050F8243F77EEA67A834267EE877AC2EDBA
:104508000D7A05D09A681B68C2ED0C7A8342F9D1FE
:104518007368F7EE006ADBF81820B6EE007A5344A9
:104528001046D3ED007A50F8243F77EEA67A8342FE
:1045380067EE877AC2ED0D7A05D09A681B68C2EDDE
:104548000C7A8342F9D1B368F7EE006ADBF81C20D5
:10455800B6EE007A53441046D3ED007A50F8243F63
:1045680077EEA67A834267EE877AC2ED0D7A05D098
:104578009A681B68C2ED0C7A8342F9D1F368F7EEAA
:10458800006ADBF82010B6EE007A53440846D3EDF3
:10459800007A50F8242F77EEA67A824267EE877A5F
:1045A800C1ED0D7A05D093681268C3ED0C7A82428A
:1045B800F9D1D8F8003040465B6998473D48019AE0
:1045C80050F8043BB7EE007AFFEE006AD3ED0C7AA0
:1045D800F4EEC77AF1EE10FA49DDF0EE477A52F8B8
:1045E800043F53449542C3ED007AE9D1D7F8283DFA
:1045F8003148D3ED0C7AF5EE407AF1EE10FA14BF9B
:104608000121002107F0B4FFD7F82C3DD3ED0C7A37
:10461800F5EEC07AF1EE10FA31D4B7EE007AF4EE86
:10462800C77AF1EE10FA38DD40F6FF720021234810
:1046380007F07CFED7F8303DD3ED0C7AF5EEC07A62
:10464800F1EE10FA1DD4B7EE007AF4EEC77AF1EE67
:1046580010FA18DD40F6FF7201340121174807F0FF
:1046680065FEA1457FF436AF03B0BDE8F08FF4EEE8
:10467800667AF1EE10FA48BFF0EE667AAFE70022EC
:10468800D4E70022E8E79FED0E7A67EE877AFCEE22
:10469800E77A17EE903A9AB2DEE79FED097A67EE6D
:1046A800877AFCEEE77A17EE903A9AB2BEE700BF37
:1046B80088120024A01F0024811F0024A8120024AF
:1046C80000F07F45102C002430B5037F04462DED03
:1046D800028B83B00191002B41D007EE901A90ED28
:1046E800067A90ED036A1546F8EEE77AD0ED0B6A84
:1046F800D0ED0A5A036AA7EE876AD0ED027A76EE01
:10470800E55A9FED575AD31A85EE858AB4EEE76AC3
:10471800F1EE10FA60DDC72BC4ED037A07EE903A8C
:1047280074D8F8EEE77ADFED4F5A85EEA76AA8EE5F
:10473800067AF4EEC76AF1EE10FA07D4D4ED0A6AE5
:10474800F4EEC76AF1EE10FA76FE876A0123C4ED2B
:10475800066A2562237503B0BDEC028B30BDD0ED2F
:10476800037A90ED096AF0EE676A87EE867A9FED24
:104778003A4BBDEEC77AB8EEC77AE6EE476AF5EE71
:10478800C06AF1EE10FAD8BFF1EE666AB7EEE65AE3
:10479800B4EEC45BF1EE10FA0BDBF5EEC07A019BC8
:1047A800F1EE10FA4BDD002B50DD76EE666A77EEFF
:1047B800A67A9DED017AD4ED026AB8EEC77AE6EEE4
:1047C800077AF4EEE67AF1EE10FA15DDC4ED036A25
:1047D80003B0BDEC028B30BDD0ED017AB4EEE76AD0
:1047E800F1EE10FA58BFF0EE467AC72BC4ED037A03
:1047F80007EE903A95D909E0D4ED016AF4EEE67A2D
:10480800F1EE10FA58BFF0EE676ADFE7F8EE677A64
:104818009FED147AB1EE001B87EE870AB7EEC00A47
:1048280012F00AFA94ED067AB7EEC88AD4ED0B6A4C
:10483800B7EEC77AA0EE487BB7EEC77B79E7002BC7
:1048480002DD77EEA67AB4E776EE666A77EEE67A68
:10485800AFE700BFAFF300808DEDB5A0F7C6B03E5F
:1048680000007A44000048431F4B70B5002501261C
:1048780004462DED068BB0EE618A0360F0EE40AA87
:1048880000F13803B0EE60AA0677F0EE419A0363B0
:10489800B0EE429A4563F0EE628A80F838503030C4
:1048A80012F093F8C4ED03AA84ED01AA2420C4ED04
:1048B800029A84ED0A8A84ED0B9A84ED068AC4ED87
:1048C800098A11F002FD4FF0FF3306700362C460DD
:1048D8002061BDEC068BC0E90155C0E90455C0E96B
:1048E8000655204670BD00BF54870108436800F193
:1048F8001002203093ED030A52F8043B596BB9B10A
:10490800196AD9B1D1ED037A30EE670A596A91B1C3
:1049180091ED037A996A77EE877A93ED0C7A29B14B
:104928004B6B1BB1D1ED0C6A27EE267AA7EE870AEE
:104938008242E1D17047B7EE007AEBE7DFED017A0A
:10494800E4E700BF0000000070B52A4B0446154696
:1049580040F8043B04F10C0363600023A360237355
:10496800C4E90B3304F12403C4E9093312F02DF828
:10497800E561402011F0A9FC05F1080C0646483510
:104988008646ACF10802714612F8013B83F0010338
:10499800624501F8013BF7D102F1080C0EF1080E4F
:1049A800AC45EED12662242011F08FFC00264FF092
:1049B800FF320323054644600262037033460E4A01
:1049C8000E49C0E90266C0E90466C0E906662046E9
:1049D80011F022FC334668612046094A074911F064
:1049E8001BFC084A084BA86020462563C5E9062336
:1049F80070BD00BF808A0108AC880108988601084C
:104A0800A8860108C5090008D50900080022A34B9B
:104A1800A349F0B587B0C0F80C210546016002AC87
:104A28008DF80E2093E803000623009402903820A6
:104A3800ADF80C10019311F048FC9A4B69460646F4
:104A48001A68FFF781FF00986E60A04203D00299B0
:104A5800013111F0DFFB944B009493E80300062327
:104A68000290382001930023ADF80C108DF80E3019
:104A780011F02BFC8D4B694606461A68FFF764FF58
:104A88000098AE60A04203D00299013111F0C2FB38
:104A9800874B009493E80300062302903820019383
:104AA8000023ADF80C108DF80E3011F00EFC814B80
:104AB800694606461A68FFF747FF0098EE60A0426D
:104AC80003D00299013111F0A5FB7B4B009493E8C8
:104AD800030006230290382001930023ADF80C1040
:104AE8008DF80E3011F0F1FB744B694606461A68D2
:104AF800FFF72AFF00982E61A04203D002990131E6
:104B080011F088FB6E4A234600260A27009407CA3C
:104B180003C338201A808DF81260019711F0D5FB75
:104B2800684B694606461A68FFF70EFF00986E61E3
:104B3800A04203D00299013111F06CFB624A23466E
:104B480000260A27009407CA03C338201A808DF864
:104B58001260019711F0B9FB5C4B694606461A686A
:104B6800FFF7F2FE0098AE61A04203D0029901312E
:104B780011F050FB564A234600260A27009407CA1C
:104B880003C338201A808DF81260019711F09DFB3D
:104B9800504B694606461A68FFF7D6FE0098EE6144
:104BA800A04203D00299013111F034FB4A4A23464E
:104BB80000260A27009407CA03C338201A808DF8F4
:104BC8001260019711F081FB444B694606461A684A
:104BD800FFF7BAFE00982E62A04203D00299013175
:104BE80011F018FB3E4A234600260927009407CAFD
:104BF80003C338201A708DF81160019711F065FB16
:104C0800384B694606461A68FFF79EFE00986E62A2
:104C1800A04203D00299013111F0FCFA324A23462E
:104C280000260927009407CA03C338201A708DF894
:104C38001160019711F049FB2C4B694606461A682A
:104C4800FFF782FE0098AE62A04203D002990131BC
:104C580011F0E0FA2420002611F037FB4FF0FF3264
:104C680004463346026206704560214A2149C0E97C
:104C78000266C0E90466C0E90666284611F0CCFA67
:104C88003346606128461C4A1A4911F0C5FA0346A2
:104C98002846C5F80C41A36007B0F0BDA083010801
:104CA800A48A010820120024A883010824120024E1
:104CB800B083010828120024B88301082C120024AC
:104CC800C0830108F4110024CC830108F8110024E2
:104CD800D8830108FC110024E48301080012002491
:104CE800F083010878120024FC8301087C12002458
:104CF800AC88010898860108A886010870B51C4B85
:104D080004460026154640F8043B04F10C03A6604F
:104D180063602673C4E90866C4E90A6611F055FEA3
:104D28000023E56124202363666311F0CEFA4FF077
:104D3800FF33054606700362334644600D490E4A48
:104D4800C0E90266C0E90466C0E90666204611F0BB
:104D580063FA3346686120460649084A11F05CFA4E
:104D6800074A084BA8602046E562C5E9062370BDDE
:104D7800C88A010898860108AC880108A886010835
:104D8800E5090008F50900082DE9F04304461E4628
:104D9800334B002587B0884640F8043B04F10C03E8
:104DA8003146A560636017462573DDF83890C4E97D
:104DB8000855C4E90A5511F008FE002368466563E2
:104DC80023636762D6E9001202AE0A440096C4E97A
:104DD8000798FBF7EBFE6FF04043019A9B1A0A2BEA
:104DE8003BD90B221F49684611F0D0FE382011F03C
:104DF8006CFA4A4669460546FFF780FF0098A562A7
:104E0800B04203D00299013111F004FA242000269F
:104E180011F05BFA4FF0FF32054633460262067026
:104E28004460114A1149C0E90266C0E90466C0E954
:104E38000666204611F0F0F93346686120460C4AB0
:104E48000A4911F0E9F90B4A0B4BA8602046E562C4
:104E5800C5E9062307B0BDE8F083084811F028FD2E
:104E6800C88A010808840108AC88010898860108E6
:104E7800A8860108E5090008F50900087C830108EF
:104E88002DE9F04F99B01D4680460C46049316460E
:104E98006A4B00210392202240F8103B0DF1380B99
:104EA800DDF888A0029012F075FF0023C8F80440CE
:104EB8003024C8F80C50C8F80860C8F83030CDF86D
:104EC8001480039B9847049B0646984707460CA8FE
:104ED800CDF830B0DAE900120A44FBF767FE0D9A04
:104EE8006FF040439A4200F0A580012254490CA873
:104EF8000DF1500811F04AFE01212D2212A8CDF81B
:104F0800488011F048FD129B1C700C9B0D9D5B4561
:104F1800139A14BF0E990F21A8188842129907D91D
:104F2800414514BFDDF850C04FF00F0C604566D9FD
:104F38000CA80DF1200911F029FE8446CDF818902F
:104F480005465CF8083B634569D00693AB6808934F
:104F58006B68382007930023C5F800C06B602B727C
:104F680011F0B3F9239B3A463146009306AB054648
:104F7800FFF70AFF0698029B484543F8045B029333
:104F880003D00899013111F045F91298404503D032
:104F98001499013111F03EF90C98584503D00E9937
:104FA800013111F037F90134E4B2342C89D12420CD
:104FB800DDF81480002511F088F94FF0FF3204461F
:104FC8002B4605700262C0F804801E4A1E49C0E9DB
:104FD8000255C0E90455C0E90655404611F01CF9D0
:104FE8002B4660614046194A174911F015F90346E6
:104FF8004046C8F83040A36019B0BDE8F08F0022E1
:10500800009512A80DF12009114611F041FD8446C2
:10501800CDF8189005465CF8083B634595D1CE4617
:10502800A868DCF80410DCF80820DCF80C30AEE8DE
:105038000F008DE7064811F03BFC00BFB08A01085D
:1050480084840108AC88010898860108A8860108AC
:105058007C830108DFED117A87EE806A38B5044653
:10506800006BFFF743FCE569606B20EE060A85EDEF
:10507800020AFFF73BFC20EE060AA06B85ED030A47
:10508800FFF734FC20EE060AE06B85ED050AFFF712
:105098002DFC20EE060A85ED000A38BD000070429E
:1050A8002DE9F0412DED048B82B004464069019151
:1050B800FFF71CFCB0EE408A04F5E276254604F5BD
:1050C800EC7756F8040BB0EE480AFFF7C3FFBE4270
:1050D800F7D104F1B40623461A6D01213C33D2ED11
:1050E8000C7AF5EE407AF1EE10FA08BF19719E427B
:1050F800F2D1D4F8F4301B78002B5ED09FEDDC6A37
:10510800D4F8EC00FFF7F2FBB4EE460AB7EE007AEB
:10511800F1EE10FA00F09B81D4ED825ADDED017AB0
:1051280087EE255AD4ED426AF8EE677AC5EE005A42
:10513800E7EEE56AF4EEC66AF1EE10FA4CBFF0EE5F
:10514800466A37EE667AC4ED426AD4ED400AD4ED79
:10515800417AD4F8E40077EEE07AE7EE870AFFF7C1
:10516800C5FBB2EE087AF0EE408AB0EE000AC0EE57
:10517800870A12F09DF8DFEDBF7ADFEDBF6AD4F839
:10518800F87020EE277AB2EE006A67EE287A67EEAA
:10519800867AF4EEE67AF1EE10FA00F38981F5EEFC
:1051A800C07AF1EE10FA00F1A381D4F8E800C7ED57
:1051B800027AFFF79BFB87ED010AD4F840311B7890
:1051C800002B5BD0D4F84C01FFF790FBD4F85401C6
:1051D800B0EE406AFFF78AFBD4F85001F0EE408A3F
:1051E800FFF784FBD4F85801B0EE409AFFF77EFB36
:1051F800DFEDA17AF0EE409AD4F84401B4EEE76A04
:10520800F1EE10FA40F31A81B0EE676AB0EE460A82
:1052180010F0F4FCDFED987AD4F84401F4EEE78A54
:10522800F1EE10FA00F34181F5EEC08AF1EE10FAC2
:1052380000F16981B0EE680A10F0F6FBF7EE007A2B
:10524800D4F84401F4EEE79AF1EE10FA40F3448101
:10525800F0EE679AB0EE690A10F004FDF7EE007AF6
:10526800D4F84401B4EEE79AF1EE10FA40F32B813A
:10527800B0EE679AB0EE490A10F0A4FBD4F81C31DE
:105288001B78FBB1D4F83001FFF730FB9FED7B7A38
:1052980048F69F43D4F82071C7EE087A9FED787AD4
:1052A80027EE800A20EE070AFDEEC07A17EE902A54
:1052B800B8EEE77A9A4230EE470A28BF1A4687EDD9
:1052C800000ABA60D4F81472002F50D0D4F80C0237
:1052D80094ED7A7AD0ED036AF4EEC76AF1EE10FA2B
:1052E80000F39B80F4EEC76AF1EE10FA11D5B7EE21
:1052F800C77A9FED5D5B37EE457BB7EEC77BF4EE73
:10530800C76AF1EE10FA40F3F080B0EE667AC4EDA9
:105318007A6AD4F8E41181ED0D7A51F8243F8B4272
:1053280005D09A681B6882ED0C7A8B42F9D1D4F8C3
:10533800EC31D4F8FC811B78C4F8008203B390EDFB
:10534800020AB8EEC00AFDEEC07A17EE903A453B65
:105358009845C4F8FC3120D1D4F80422BA421CD1B3
:10536800C4F8047202B0BDEC048BBDE8F081D4F837
:10537800EC311B78002BF3D1D4F8FC81C4F80082FF
:10538800D4F8F001FFF7B2FAFDEEC07A17EE903AC2
:10539800453B9845C4F8FC31DED007EE903AF8EE6C
:1053A800E77A95F84030B7EE007A00210022002B0A
:1053B80050D1D5ED0D6A95ED0E6AD5ED0F5A36EE42
:1053C800666A85ED0F7A37EE657AC5ED0E7AE6EEF8
:1053D800076AC5ED0D6A3C35AE42E2D194F80C314E
:1053E800002B51D1F7EE005A94ED407A94ED416AC2
:1053F800D4ED426A36EE476AC4ED417A75EEE67A34
:10540800C4ED425AC4F80472A6EE277A84ED407AB5
:1054180002B0BDEC048BBDE8F081B7EEC77A9FED12
:10542800125B37EE057BB7EEC77BF4EEC76AF1EE89
:1054380010FA3FF56AAF84ED7A7A53E7B5EEC06AA1
:10544800F1EE10FA7FF5E2AE9FED096ADEE684ED33
:10545800426A7AE685F84010EA63C5ED0D7AC5ED33
:105468000E7AB8E7AFF300807B14AE47E17A843F49
:10547800000000000000DC4300401C4700007042B0
:1054880000803B470000000000220023C4ED407A62
:10549800C4ED417A84F80C21C4F80831C4F80472C8
:1054A80002B0BDEC048BBDE8F081F0EE678AC1E67E
:1054B800F0EE667AD4F8E800C7ED027AFFF716FA3C
:1054C80087ED010A79E6B5EEC09AF1EE10FA7FF59C
:1054D800D1AE1FED149ACDE6F5EEC09AF1EE10FAB2
:1054E8007FF5B8AE5FED199AB4E684ED7A7A10E7E5
:1054F8005FED1C7AD4F8E800C7ED027AFFF7F6F9F9
:1055080087ED010A59E65FED218A93E62DE9F04F10
:10551800C04B054600270E4604464FF0010BDFF846
:1055280034832DED028B45F8043B00F10C039FED0D
:10553800BA8ABBB0436087600DF1180A0773C76168
:1055480080ED098A0392C0E90A77C0E90C77C0E9BF
:105558000E77382010F0B9FE3146E061284611F088
:1055680034FAAE4B8DF81E70CDF810A093E8030006
:10557800062306904820ADF81C10059310F0A5FEF0
:1055880000F138030546476304A980F838703030C5
:1055980000F814BC036040F8308C11F016FAA04BE8
:1055A800242085ED018AEB60EB626B629D4BAB6258
:1055B800AB614FF08443AB6010F087FE4FF0FF33D0
:1055C80080F800B00DF1300B0362C5602861CDF89A
:1055D80028B0C0E90177C0E90477C0E90677D6E9C1
:1055E8000012914F0AA80A442F60FBF7DFFA6FF008
:1055F80040430B9A9B1A062B40F2108207228B49D4
:105608000AA811F0C3FA342010F05FFE0AAB29464D
:10561800874A00930546874B1B680193864BFFF723
:105628002FFC0A982563584503D00C99013110F0D6
:10563800F1FD0498504503D00699013110F0EAFDB8
:105648007E4B4FF0000B0DF1480A4FF001098DF821
:105658004DB0CDF840A093E80300052312904820F0
:1056680011938DF84C1010F030FE00F13802054609
:10567800C0F834B010A980F838B0303000F8149C65
:10568800026040F8308C11F0A0F9654A2420EA60E5
:10569800EA626A62634AAA62AA6100226A604FF0FB
:1056A8008442AA6010F011FE4FF0FF3380F800909A
:1056B8000DF15809C560286103622F60D6E9001210
:1056C800C0E901BBC0E904BBC0E906BB0DF1600B32
:1056D8000A444846CDF858B0FBF768FA6FF04042E4
:1056E8001799521A052A40F29981062254494846C8
:1056F80011F04CFA342010F0E8FD524BCDF8009030
:1057080029461B6805464A4A01934B4BFFF7B8FBED
:1057180016986563584503D01899013110F07AFD41
:105728001098504503D01299013110F073FD464B83
:105738004FF0000B0DF1780A8DF87FB0CDF870A00E
:1057480093E803000723ADF87C10090C1E9048204D
:105758008DF87E101D9310F0B8FD012300F138027A
:105768000546C0F834B003771CA980F838B030304B
:10577800026040F8308C11F028F94FF07C52242058
:10578800EA60284AAA62AA61254AEA626A62002295
:105798006A604FF08442AA6010F097FD0123C5604B
:1057A80003704FF0FF33286103622F60D6E90012BF
:1057B800C0E901BBC0E904BBC0E906BB0DF1900B11
:1057C8000A4422A8CDF888B0FBF7F0F96FF04043FF
:1057D800239A9B1A072B40F2218108221B4922A8F1
:1057E80011F0D4F9342010F070FD22AB2946104A8C
:1057F80000930546164B1B6801930F4BFFF740FBC0
:105808002298A563584527D02499013110F002FD4C
:1058180022E000BFE08A0108000000005080010873
:10582800CDCCCC3D6F12833A6487010814840108FB
:10583800191A0008F0110024CD1A00085880010830
:105848001C84010838120024688001082484010897
:10585800602D0024548701081C98504503D01E99D8
:10586800013110F0D7FC6F4B4FF0000B0DF1A80A77
:105878008DF8AFB0CDF8A0A093E803000723ADF8EA
:10588800AC10090C2A9048208DF8AE10299310F01E
:105898001CFD00F13803C0F800804FF001080546F0
:1058A800036328A980F81C803030C0F804B080F861
:1058B80008B011F08AF84FF07E532420AB605A4BA1
:1058C800AB62AB61594BEB6000236B60584BEB62EA
:1058D800584B6B6210F0F9FC4FF0FF3380F80080F2
:1058E8000DF1B8082F6030AF0362C56028612E97AC
:1058F800D6E90012C0E901BB0A44C0E904BBC0E90B
:1059080006BB4046FBF752F96FF040432F9A9B1AAB
:10591800072B40F2838008224749404611F036F9A8
:10592800342010F0D2FC454BCDF8008029461B6886
:105938000546434A0193434BFFF7A2FA2E98E563C5
:10594800B84203D03099013110F064FC28985045D2
:1059580003D02A99013110F05DFC36AD34A8D6E9A0
:10596800001234950A44FBF721F9382010F0ADFCF9
:10597800039A34A90746FEF7E7FF34982762A8423E
:1059880003D03699013110F045FC34A83495D6E996
:1059980000120A44FBF70AF96FF04043359A9B1A44
:1059A800042B3BD90522284934A811F0EFF83820F8
:1059B80010F08BFC254B34A906461A68FFF79EF9B0
:1059C8003498A662A84203D03699013110F022FC1F
:1059D8002420002610F079FC4FF0FF3205463346AC
:1059E8000262067044601A4A1A49C0E90266C0E9B0
:1059F8000466C0E90666204610F00EFC334668616E
:105A08002046154A134910F007FC03462046E56274
:105A1800AB603BB0BDEC028BBDE8F08F0F4810F0D7
:105A280047FF00BF608001086F12833A3333333F6A
:105A3800CDCC4C3D0AD7233C30840108642D00248A
:105A48008D16000841170008F4840108801200240C
:105A5800AC88010898860108A88601087C8301089B
:105A680010B50446C06BB0EE406AFEF73FFF94EDF8
:105A7800095AB7EE002BDFED327AF7EE004AB7EE9F
:105A8800C55A94ED0A7AC7EE866A236B82EE053B07
:105A9800B7EEC77A26EE800AB7EEC00AA0EE037BFF
:105AA800B7EEC77BD3ED0C7AB4EEE47AF1EE10FAD8
:105AB800A8BF37EE647A84ED0A7A9FED227AF4EE75
:105AC800477AF1EE10FA0AD094F82C30A3B30023E9
