:020000040800F2
:10000000000002207D09000879090008EDD40008ED
:100010007909000879090008790900080000000042
:100020000000000000000000000000007909000846
:10003000790900080000000079090008DDD40008F3
:100040007909000879090008790900087909000888
:100050007909000879090008790900087909000878
:100060007909000879090008790900089DCC000881
:10007000A9CC0008A5BE0008B5CC0008C1CC00087A
:10008000CDD400081D52010879090008790900083B
:100090007909000879090008790900087909000838
:1000A0007909000879090008790900087909000828
:1000B0007909000879090008790900084152010806
:1000C000790900084D5201087909000879090008EA
:1000D0007909000899D4000879090008790900080D
:1000E0007909000879090008000000007909000872
:1000F00079090008790900087909000879090008D8
:1001000079090008790900087909000879090008C7
:10011000790900087909000875C100087909000803
:100120005DC1000869C10008790900087909000863
:100130007909000879090008790900087909000897
:1001400000000000000000000000000000000000AF
:100150007909000879090008790900087909000877
:10016000595201087909000879090008790900083D
:100170007909000879090008790900087909000857
:100180007909000879090008790900087909000847
:100190007909000879090008790900087909000837
:1001A0007909000879090008790900087909000827
:1001B000E5C90008790900087909000879090008EB
:1001C0007909000879090008790900087909000807
:1001D00079090008790900087909000879090008F7
:1001E00079090008790900087909000879090008E7
:1001F00079090008790900087909000879090008D7
:1002000079090008790900087909000879090008C6
:1002100079090008790900087909000879090008B6
:100220007909000879090008790900080000000030
:100230007909000879090008000000007909000820
:100240007909000879090008790900087909000886
:100250007909000879090008790900087909000876
:100260007909000879090008790900087909000866
:1002700079090008790900087909000800000000E0
:1002800079090008790900087909000800000000D0
:080290000000000079090008DC
:1002980010B5054C237833B9044B13B10448AFF3B8
:1002A80000800123237010BD5011002400000000BD
:1002B80050AF010808B5034B1BB103490348AFF31E
:1002C800008008BD000000005411002450AF010850
:1002D80010F8012B11F8013B012A28BF9A42F7D0E8
:1002E800D01A7047034613F8012B002AFBD1181ABD
:1002F8000138704781F0004102E000BF83F00043FD
:1003080030B54FEA41044FEA430594EA050F08BFA8
:1003180090EA020F1FBF54EA000C55EA020C7FEA6C
:10032800645C7FEA655C00F0E2804FEA5454D4EBE9
:100338005555B8BF6D420CDD2C4480EA020281EAB3
:10034800030382EA000083EA010180EA020281EAEB
:100358000303362D88BF30BD11F0004F4FEA01313D
:100368004FF4801C4CEA113102D0404261EB41014C
:1003780013F0004F4FEA03334CEA133302D05242D2
:1003880063EB430394EA050F00F0A780A4F101048E
:10039800D5F1200E0DDB02FA0EFC22FA05F28018C8
:1003A80041F1000103FA0EF2801843FA05F35941AE
:1003B8000EE0A5F120050EF1200E012A03FA0EFC2D
:1003C80028BF4CF0020C43FA05F3C01851EBE37157
:1003D80001F0004507D54FF0000EDCF1000C7EEB74
:1003E80000006EEB0101B1F5801F1BD3B1F5001FB2
:1003F8000CD349085FEA30004FEA3C0C04F10104D1
:100408004FEA445212F5800F80F09A80BCF1004FF9
:1004180008BF5FEA500C50F1000041EB045141EA7B
:10042800050130BD5FEA4C0C404141EB0101013C44
:1004380028BFB1F5801FE9D291F0000F04BF014633
:100448000020B1FA81F308BF2033A3F10B03B3F105
:1004580020020CDA0C3208DD02F1140CC2F10C0295
:1004680001FA0CF021FA02F10CE002F11402D8BFF3
:10047800C2F1200C01FA02F120FA0CFCDCBF41EABF
:100488000C019040E41AA2BF01EB0451294330BD8E
:100498006FEA04041F3C1CDA0C340EDC04F114046B
:1004A800C4F1200220FA04F001FA02F340EA030042
:1004B80021FA04F345EA030130BDC4F10C04C4F188
:1004C800200220FA02F001FA04F340EA0300294668
:1004D80030BD21FA04F0294630BD94F0000F83F4B2
:1004E800801306BF81F480110134013D4EE77FEA95
:1004F800645C18BF7FEA655C29D094EA050F08BFE1
:1005080090EA020F05D054EA000C04BF19461046C1
:1005180030BD91EA030F1EBF0021002030BD5FEA05
:10052800545C05D14000494128BF41F0004130BD2D
:1005380014F580043CBF01F5801130BD01F0004581
:1005480045F0FE4141F470014FF0000030BD7FEAF4
:10055800645C1ABF194610467FEA655C1CBF0B46EF
:10056800024650EA013406BF52EA033591EA030F06
:1005780041F4002130BD00BF90F0000F04BF0021FE
:10058800704730B54FF4806404F132044FF0000531
:100598004FF0000150E700BF90F0000F04BF0021AA
:1005A800704730B54FF4806404F1320410F0004510
:1005B80048BF40424FF000013EE700BF42004FEA0B
:1005C800E2014FEA31014FEA02701FBF12F07F4388
:1005D80093F07F4F81F06051704732F07F4208BF3F
:1005E800704793F07F4F04BF41F40021704730B546
:1005F8004FF4607401F0004521F000411CE700BF92
:1006080050EA010208BF704730B54FF000050AE014
:1006180050EA010208BF704730B511F0004502D515
:10062800404261EB41014FF4806404F132045FEA17
:10063800915C3FF4D8AE4FF003025FEADC0C18BFC0
:1006480003325FEADC0C18BF033202EBDC02C2F1B2
:10065800200300FA03FC20FA02F001FA03FE40EA44
:100668000E0021FA02F11444BDE600BF53B94AB99D
:10067800002908BF00281CBF4FF0FF314FF0FF30A2
:1006880000F074B9ADF1080C6DE904CE00F006F87D
:10069800DDF804E0DDE9022304B070472DE9F047F6
:1006A800089D04468E46002B4DD18A42944669D94E
:1006B800B2FA82F252B101FA02F3C2F1200120FA31
:1006C80001F10CFA02FC41EA030E94404FEA1C487F
:1006D800210CBEFBF8F61FFA8CF708FB16E341EA7B
:1006E800034306FB07F199420AD91CEB030306F101
:1006F800FF3080F01F81994240F21C81023E634422
:100708005B1AA4B2B3FBF8F008FB103344EA0344C5
:1007180000FB07F7A7420AD91CEB040400F1FF33DA
:1007280080F00A81A74240F207816444023840EA17
:100738000640E41B00261DB1D4400023C5E9004350
:100748003146BDE8F0878B4209D9002D00F0EF80D3
:100758000026C5E9000130463146BDE8F087B3FA06
:1007680083F6002E4AD18B4202D3824200F2F980EE
:10077800841A61EB030301209E46002DE0D0C5E9F1
:10078800004EDDE702B9FFDEB2FA82F2002A40F03D
:100798009280A1EB0C014FEA1C471FFA8CFE012640
:1007A800200CB1FBF7F307FB131140EA01410EFBE4
:1007B80003F0884208D91CEB010103F1FF3802D28B
:1007C800884200F2CB804346091AA4B2B1FBF7F085
:1007D80007FB101144EA01440EFB00FEA64508D9A8
:1007E8001CEB040400F1FF3102D2A64500F2BB80E5
:1007F8000846A4EB0E0440EA03409CE7C6F1200734
:10080800B34022FA07FC4CEA030C20FA07F401FA79
:1008180006F31C43F9404FEA1C4900FA06F3B1FB02
:10082800F9F8200C1FFA8CFE09FB181140EA014167
:1008380008FB0EF0884202FA06F20BD91CEB010104
:1008480008F1FF3A80F08880884240F28580A8F15C
:1008580002086144091AA4B2B1FBF9F009FB1011AE
:1008680044EA014100FB0EFE8E4508D91CEB01014C
:1008780000F1FF346CD28E456AD90238614440EAEF
:100888000840A0FB0294A1EB0E01A142C846A6466F
:1008980056D353D05DB1B3EB080261EB0E0101FAF8
:1008A80007F722FA06F3F1401F43C5E90071002655
:1008B8003146BDE8F087C2F12003D8400CFA02FCAB
:1008C80021FA03F3914001434FEA1C471FFA8CFEBB
:1008D800B3FBF7F007FB10360B0C43EA064300FBAB
:1008E8000EF69E4204FA02F408D91CEB030300F149
:1008F800FF382FD29E422DD9023863449B1B89B200
:10090800B3FBF7F607FB163341EA034106FB0EF388
:100918008B4208D91CEB010106F1FF3816D28B4235
:1009280014D9023E6144C91A46EA004638E72E4601
:10093800284605E70646E3E61846F8E64B45A9D2F9
:10094800B9EB020864EB0C0E0138A3E74646EAE768
:10095800204694E74046D1E7D0467BE7023B614416
:1009680032E7304609E76444023842E7704700BF7F
:10097800FEE700BF0B480C4A904203D0121A0B49FD
:1009880017F08CF90A480B4A904203D0121A00213A
:1009980017F0ACF90CF014FF17F04CF907F0F4FE5F
:1009A800FEE700BF000000244C11002470AF0108CE
:1009B8005011002474410024704700BF024B426864
:1009C800C3F8102D704700BF08120024024B002204
:1009D800C3F8102D704700BF08120024024B42686C
:1009E800C3F80C2D704700BF08120024024B0022E8
:1009F800C3F80C2D704700BF08120024704700BFD1
:100A0800704700BF2DE9F84300264FF0FF348146B8
:100A180001F6F84807EE906AB6EE007ADFED230A91
:100A2800F8EEE77A99ED030AD9E9122377EE877A87
:100A380067EEA07ABBB3D3ED030A77EEA00A90471E
:100A4800B7EE006AB6EE007ADFED196ADFED197AC3
:100A5800002C30EE060A27EE407AE7EE267AFDEE05
:100A6800E77A17EE905A12DDA542CCBF01274FF066
:100A7800FF3722460123314640460AF0ADFCAC421E
:100A88003C44F6D10136802E0BD02C46C2E73146C5
:100A98000136012317EE902A40460AF09DFC802E6D
:100AA800F3D1BDE8F883DFED040AC6E70000003C97
:100AB800000040420000784200000000D0ED037AB8
:100AC80090ED017AB4EEE77A2DE9F041F1EE10FAF3
:100AD8000F4608DAD0ED026AF4EEE76AF1EE10FA92
:100AE80023D8B0EE667A174B4FF00A080025D3EDED
:100AF800007AF8EEE77A67EE877AF8FE677AFDEE15
:100B0800E77A17EE906A002403E00AF065FC802C6F
:100B180012D00123AE422146424604F1010407F6F1
:100B2800F8401D44F1DCBDE8F08177EEC77A76EE37
:100B3800C76A87EEA67AD6E708F10108B8F14A0F26
:100B4800E1D1F0E744020024F0B500F1080783B0D2
:100B5800076031B3044608460E46FFF7C3FB0F286B
:100B6800054601900CD8012807D133782372002359
:100B7800204665607B5503B0F0BD0028F7D008E03B
:100B8800002201A9204615F047FE019B0746206078
:100B9800A3602A463846314617F080F8019D276839
:100BA800E5E7014815F02DFE6C7F010870B5054694
:100BB80082B00E4602B141B3941B0F2C019411D898
:100BC800012C286808D1337803700023019C286819
:100BD8006C60035502B070BD64B900236C600355A6
:100BE80002B070BD002201A9284615F015FE019B30
:100BF8002860AB602246314617F050F8019C2868FF
:100C080000236C60035502B070BD014815F0F9FD72
:100C18006C7F01082DE9F04F814689B001F5C47356
:100C280001F1380859F8245F0193A8F13804A9455F
:100C38001DD0AB6804AF02A8C3B166680297D3E9B8
:100C480001120A44FFF7B2FFAB68304602A9D3F895
:100C58001CB0D3F82CA015F064FE0298B842C6E97F
:100C680006BA03D00499013115F080FA2D680434CE
:100C78004445DCD104F13808019B4345D5D109B07E
:100C8800BDE8F08F70B5294D294E2B68DA690AB195
:100C98001846904732689368002B41D01468013B8E
:100CA800A16820469360296015F0A3FD20460C2119
:100CB80015F05CFA2B68986898B11E4CD4F8142D7E
:100CC80090420ED022B113681B49DB688B4228D1B1
:100CD80003681A4A9B6892ED000AC4F8140D9847F5
:100CE8002B685868B8B1164A1B6A116801F5A87CC8
:100CF80001F5C47E0B60ACF5A8735A68383300243C
:100D08009C45D461F9D10CF1040CF445F3D1036886
:100D18001B6898472B685A6912B1D26A002AB5D065
:100D280070BD104698472B689868D1E7E02C0024DE
:100D38006C11002408120024050A0008DC2C002489
:100D4800501F00242DE9F0412DED028B84B005469B
:100D580004AC04E90E009DF804309DF80C60012BEA
:100D680053D0ABB3052B16D107EE906ADFED356A89
:100D7800D0F8EC21F8EEE77A114687EEA67A51F81A
:100D8800243F8B4282ED0D7A05D09A681B6882ED6C
:100D98000C7A8B42F9D1D5F80C22D5F8E031F7EE70
:100DA800007A002A9FED287A194647FE277AC3ED74
:100DB8000D7A51F8243F8B4205D09A681B68C2ED22
:100DC8000C7A8B42F9D104B0BDEC028BBDE8F081FE
:100DD800D0F8044200F50177BC4203D1DBE7246870
:100DE800BC42D8D0A3689E42F9D1D5F80C3220462F
:100DF800D4F80080013BC5F80C3215F0FAFC204607
:100E08001021444615F0B2F9E9E79DF80D3010209D
:100E18009FED0C7A07EE903AD5F80412F8EE677A4F
:100E2800009187EE878A15F0FCF90099866080EDBD
:100E3800038A15F0D7FCD5F80C220132C5F80C222C
:100E4800ABE700BF0000FE420000000070B5294D6E
:100E580082B004462B6873B1274B0C201E6831689A
:100E6800019115F0DEF92B680199836015F0BAFC41
:100E7800B3680133B360A0682C6098B11F4ED6F8F0
:100E8800143D98420ED023B11A681D49D2688A428F
:100E98002BD103681B4A9B6892ED000AC6F8140D13
:100EA80098472C686068B8B1174A236A116801F539
:100EB800A87C01F5C47E0B60ACF5A8735A6838337A
:100EC80000249C45D461F9D10CF1040CF445F3D10C
:100ED80003681B6898472C68A36923B1204602B0B1
:100EE800BDE87040184702B070BD184690472B689F
:100EF8009868CEE7E02C00246C1100240812002426
:100F0800050A0008DC2C0024501F00242DE9F04FAE
:100F1800564C87B00D460E1D04F1380707E0636B89
:100F28000BB1DA6A52BBBC4206F1040647D054F84A
:100F3800043B002BF3D0DA6A002AF0D00DF108093F
:100F48009A68D6F800806846CDF8009059680A4437
:100F5800FFF72CFE54F8043C40466946D3F81CB011
:100F6800D3F830A015F0DDFC00984845C8E906BA6A
:100F7800D5D00299013115F0F9F8D0E70DF108093B
:100F88009A68D6F838806846CDF8009059680A44BF
:100F9800FFF70CFE636B40466946D3F81CB0D3F8E4
:100FA80030A015F0BEFC00984845C8E906BABAD08A
:100FB80002990436013115F0D9F8BC42B7D12C4C4E
:100FC800743504F1380607E0636B0BB1DA6A4ABB83
:100FD800B44205F1040545D054F8043B002BF3D086
:100FE800DA6A002AF0D00DF108089A682F68684676
:100FF800CDF8008059680A44FFF7D8FD54F8043C3E
:1010080038466946D3F81CA0D3F8309015F089FC0F
:1010180000984045C7E906A9D6D00299013115F0D4
:10102800A5F8D1E70DF108089A68AF6B6846CDF8C6
:10103800008059680A44FFF7B9FD636B3846694672
:10104800D3F81CA0D3F8309015F06BFC00984045FD
:10105800C7E906A9BCD002990435013115F086F814
:10106800B442B9D107B0BDE8F08F00BFB42B00245B
:10107800242C002400000000FDEEE07AF8EEE77A68
:1010880070EEE70AF5EEC00AF1EE10FA03D5F7EEB6
:10109800007A70EEA70AB7EEC07A9FED556BB4EEF2
:1010A800C67BF1EE10FA13D5B5EE000AB6EE006B6A
:1010B80030EE800A9FED507BB7EEC00A30EE460B4B
:1010C80030EE000B20EE070BB7EEC00B16F08CBA13
:1010D8009FED4B6BB4EEC67BF1EE10FA23D5B6EE5E
:1010E800007AF5EE007A60EE870AF4EEE70AF1EE90
:1010F80010FA56D9F4EEC70AF1EE10FA64D9F6EEF2
:10110800087AF4EEE70AF1EE10FA66D870EEC70A2C
:10111800F9EE007A60EEA70AF0EE007ABFEE000A58
:10112800A0EEA70A70479FED386BB4EEC67BF1EED0
:1011380010FA1ED49FED366BB4EEC67BF1EE10FAB2
:1011480034D5F6EE007AB7EE007AF0EE006AE0EEFB
:10115800A77AB7EE000AF4EEC77AF1EE10FAC8BF24
:1011680077EEC77ABFEE007AA7EEA67AA7EE660AF0
:101178007047F6EE007AB7EE007ABFEE000AE0EEAE
:10118800A77AF0EE406AF4EEC77AF1EE10FAC8BF1B
:1011980077EEC77AB0EE007AE7EE876AA6EE870A9E
:1011A8007047F1EE007A60EEA70AB5E7B6EE007A6E
:1011B800F7EE007ABFEE000AF4EEC70AF1EE10FA75
:1011C80088BFB0EE670A704770EEE77AB1EE007A32
:1011D800F7EE000AE7EEC70A9EE770EEE77AB1EE8F
:1011E800007AF7EE000AE7EEC70AF1EE600A93E725
:1011F8009A9999999999C93F00000060FB21094083
:101208009A9999999999D93F333333333333E33FD3
:101218009A9999999999E93FFDEEE07AF8EEE77A7B
:1012280070EEE70AF5EEC00AF1EE10FA03D5F7EE14
:10123800007A70EEA70AB4EE007AB4EEC70AF1EEAF
:1012480010FA0FD5B7EEE00AB6EE006B9FED827B81
:1012580030EE460B30EE000B20EE070BB7EEC00B5E
:1012680016F0C2B9F5EE007AB4EEE70AF1EE10FA1C
:101278001BD5F4EEE70AF1EE10FA4AD9B6EE000AE9
:10128800F4EEC00AF1EE10FA40F29580F6EE087A14
:10129800F4EEE70AF1EE10FA00F2968030EEC00A9A
:1012A800F9EE000A20EE200A7047F5EE086AF6EE1D
:1012B800007AB4EEE60AF1EE10FA18D4B4EEE70AB2
:1012C800F1EE10FA2AD570EEA70AF7EE007ABFEE13
:1012D800000AF4EEE70AF1EE10FAC8BF70EEE70A6A
:1012E800F0EE007AA0EEA70AB1EE400A704770EE61
:1012F800A77AB7EE007ABFEE000AF4EEC77AF1EEED
:1013080010FAC8BF77EEC77AB0EE007AA7EE870A60
:101318007047B1EE000A20EE800A7047B6EE046A04
:10132800B4EEC60AF1EE10FA59D4B6EE087AB4EE65
:10133800C70AF1EE10FA72D59FED497AF4EEC70AA2
:10134800F1EE10FA68D9B4EE087AF4EEC70AF1EEB5
:1013580010FA73D9F5EE047AF4EEE70AF1EE10FA12
:1013680069D9F5EE0C7AF4EEE70AF1EE10FA68D9CD
:10137800F6EE027AF4EEE70AF1EE10FA4CD9F6EE40
:10138800067AF4EEE70AF1EE10FA5DD9F6EE0A7A7B
:10139800F4EEE70AF1EE10FA59D9B6EE0E7ADFED5F
:1013A800317ABEEE000AF4EEC70AF1EE10FA88BFF1
:1013B800B0EE670A704770EEE77AB1EE007AB7EEE2
:1013C800000AA7EEC70A704770EEE77AB1EE007A16
:1013D800B7EE000AA7EEC70AB1EE400A7047F4EE6E
:1013E800C70AF1EE10FA17D9F4EEE60AF1EE10FA90
:1013F80021D9F4EEC60AF1EE10FA0DD9B6EE0C7A40
:10140800DFED187ABFEE000AF4EEC70AF1EE10FA23
:1014180088BFB0EE670A70479FED120A7047F4EE76
:10142800E70ABFEE000AF7EE000AF1EE10FA88BFED
:10143800B0EE600A7047B7EE000A7047B0EE670A70
:101448007047B6EE000A7047BEEE000A7047BFEE5E
:10145800000A7047AFF3008000000060FB210940DC
:101468000000803D00000000264B0722F0B593E8FD
:10147800030087B000250B0C012702AE029048201C
:10148800ADF80C108DF80E308DF80F50CDE90062D4
:1014980014F0C7FE1C4B04464563036000F1380393
:1014A80080F8385069460363303000F8147C15F032
:1014B80038FA4FF07E532420E360E3626362134BF3
:1014C800A362A36100236360114BA36014F0A9FE1B
:1014D800104B4FF0FF3207702360009BC460B3428B
:1014E80020610262C0E90155C0E90455C0E906550A
:1014F80004D002991846394414F038FE204607B043
:10150800F0BD00BF987F0108788601080AD7233C00
:101518000000704298860108274B0722F0B593E82F
:10152800030087B000250B0C012702AE029048206B
:10153800ADF80C108DF80E308DF80F50CDE9006223
:1015480014F06FFE1D4B04464563036000F1380339
:1015580080F8385069460363303000F8147C15F081
:10156800E0F94FF07E532420E360002363604FF0DE
:101578008443A360124BA362A361124B6362124BB4
:10158800E36214F04EFE114B4FF0FF3207702360F8
:10159800009BC460B34220610262C0E90155C0E902
:1015A8000455C0E9065504D002991846394414F088
:1015B800DDFD204607B0F0BDA07F01087886010850
:1015C8006F12833A0AD7233CCDCC4C3E888601085B
:1015D800264B0722F0B593E8030087B000250B0CD3
:1015E800012702AE02904820ADF80C108DF80E309D
:1015F8008DF80F50CDE9006214F013FE1C4B044621
:101608004563036000F1380380F838506946036386
:10161800303000F8147C15F084F900232420E360AE
:1016280063604FF07E53A360124BA362A361124B19
:101638006362124BE36214F0F4FD114B4FF0FF327A
:1016480007702360009BC460B34220610262C0E956
:101658000155C0E90455C0E9065504D00299184659
:10166800394414F083FD204607B0F0BD987F010887
:10167800788601086F12833A0AD7233CCDCC4C3DBB
:1016880088860108264B0722F0B593E8030087B047
:1016980000250B0C012702AE02904820ADF80C1073
:1016A8008DF80E308DF80F50CDE9006214F0B9FDB9
:1016B8001C4B04464563036000F1380380F838503A
:1016C80069460363303000F8147C15F02AF90023CA
:1016D8002420E36063604FF08443A360124BA3624D
:1016E800A361124B6362124BE36214F09AFD114B33
:1016F8004FF0FF3207702360009BC460B342206143
:101708000262C0E90155C0E90455C0E9065504D094
:1017180002991846394414F029FD204607B0F0BD57
:10172800987F0108788601086F12833A0AD7233C0C
:10173800CDCC4C3E88860108274B0722F0B593E8AC
:10174800030087B000250B0C012702AE0290482049
:10175800ADF80C108DF80E308DF80F50CDE9006201
:1017680014F05FFD1D4B04464563036000F1380328
:1017780080F8385069460363303000F8147C15F05F
:10178800D0F84FF07A532420E360002363604FF0D1
:101798008243A360124BA362A361124B6362124B94
:1017A800E36214F03EFD114B4FF0FF3207702360E7
:1017B800009BC460B34220610262C0E90155C0E9E0
:1017C8000455C0E9065504D002991846394414F066
:1017D800CDFC204607B0F0BD987F01087886010847
:1017E8006F12833A0AD7233CCDCC4C3D888601083A
:1017F800274B0722F0B593E8030087B000250B0CB0
:10180800012702AE02904820ADF80C108DF80E307A
:101818008DF80F50CDE9006214F003FD1D4B04460E
:101828004563036000F1380380F838506946036364
:10183800303000F8147C15F074F84FF07C532420F5
:10184800E360002363604FF08243A360124BA362FE
:10185800A361124B6362124BE36214F0E2FC114B7A
:101868004FF0FF3207702360009BC460B3422061D1
:101878000262C0E90155C0E90455C0E9065504D023
:1018880002991846394414F071FC204607B0F0BD9F
:10189800A07F0108788601086F12833A0AD7233C93
:1018A800CDCC4C3D88860108264B0722F0B593E83D
:1018B800030087B000250B0C012702AE02904820D8
:1018C800ADF80C108DF80E308DF80F50CDE9006290
:1018D80014F0A7FC1C4B04464563036000F1380371
:1018E80080F8385069460363303000F8147C15F0EE
:1018F80018F84FF07E532420E360E3626362134BD1
:10190800A362A361124B6360124BA36014F089FCBD
:10191800114B4FF0FF3207702360009BC460B34245
:1019280020610262C0E90155C0E90455C0E90655C5
:1019380004D002991846394414F018FC204607B020
:10194800F0BD00BFA07F0108788601080AD7233CB4
:101958000000B0C20000B04298860108264B07225A
:10196800F0B593E8030087B000250B0C012702AE01
:1019780002904820ADF80C108DF80E308DF80F50FD
:10198800CDE9006214F04DFC1C4B0446456303602E
:1019980000F1380380F8385069460363303000F8A6
:1019A800147C14F0BEFF4FF07E532420E360A36044
:1019B800134BA362A361134B636200236360124B52
:1019C800E36214F02EFC114B4FF0FF3207702360D6
:1019D800009BC460B34220610262C0E90155C0E9BE
:1019E8000455C0E9065504D002991846394414F044
:1019F800BDFB204607B0F0BDA07F0108788601082E
:101A08006F12833A0AD7233CCDCC4C3D8886010817
:101A1800264B0722F0B593E8030087B000250B0C8E
:101A2800012702AE02904820ADF80C108DF80E3058
:101A38008DF80F50CDE9006214F0F3FB1C4B0446FF
:101A48004563036000F1380380F838506946036342
:101A5800303000F8147C14F064FF4FF07E532420DB
:101A6800E360E3626362134BA362A361124B63609A
:101A7800124BA36014F0D5FB114B4FF0FF320770E7
:101A88002360009BC460B34220610262C0E9015533
:101A9800C0E90455C0E9065504D0029918463944EE
:101AA80014F064FB204607B0F0BD00BF987F010822
:101AB800788601080AD7233C0000B0C20000B04273
:101AC80098860108264B0722F0B593E8030087B0F3
:101AD80000250B0C012702AE02904820ADF80C102F
:101AE8008DF80E308DF80F50CDE9006214F099FB97
:101AF8001C4B04464563036000F1380380F83850F6
:101B080069460363303000F8147C14F00AFF4FF084
:101B18007E532420E360E3626362134BA362A361F4
:101B280000236360114BA36014F07BFB104B4FF054
:101B3800FF3207702360009BC460B34220610262D9
:101B4800C0E90155C0E90455C0E9065504D0029919
:101B58001846394414F00AFB204607B0F0BD00BF10
:101B6800A07F0108788601080AD7233C000070424C
:101B780098860108264B0722F0B593E8030087B042
:101B880000250B0C012702AE02904820ADF80C107E
:101B98008DF80E308DF80F50CDE9006214F041FB3E
:101BA8001C4B04464563036000F1380380F8385045
:101BB80069460363303000F8147C14F0B2FE164B0B
:101BC8002420E36000236360144BA360144BA362DA
:101BD800A361144BE362636214F023FB124B4FF0D2
:101BE800FF3207702360009BC460B3422061026229
:101BF800C0E90155C0E90455C0E9065504D0029969
:101C08001846394414F0B2FA204607B0F0BD00BFB8
:101C1800987F0108788601080000FA4400401C47B4
:101C28000AD7233C0000484298860108274B072220
:101C3800F0B593E8030087B000250B0C012702AE2E
:101C480002904820ADF80C108DF80E308DF80F502A
:101C5800CDE9006214F0E5FA1D4B044645630360C4
:101C680000F1380380F8385069460363303000F8D3
:101C7800147C14F056FE4FF081432420E3600023C7
:101C880063604FF08243A360124BA362A3614FF0DD
:101C98007E53E362636214F0C4FA0F4B4FF0FF32D5
:101CA80007702360009BC460B34220610262C0E9F0
:101CB8000155C0E90455C0E9065504D002991846F3
:101CC800394414F053FA204607B0F0BD987F010854
:101CD800788601080AD7233C98860108264B0722F4
:101CE800F0B593E8030087B000250B0C012702AE7E
:101CF80002904820ADF80C108DF80E308DF80F507A
:101D0800CDE9006214F08DFA1C4B0446456303606C
:101D180000F1380380F8385069460363303000F822
:101D2800147C14F0FEFD164B2420E360002363604E
:101D3800144BA360144BA362A361144BE362636268
:101D480014F06FFA124B4FF0FF3207702360009BBC
:101D5800C460B34220610262C0E90155C0E904557C
:101D6800C0E9065504D002991846394414F0FEF922
:101D7800204607B0F0BD00BFA07F010878860108A3
:101D88000000FA4400401C470AD7233C00004842A0
:101D980098860108274B0722F0B593E8030087B01F
:101DA80000250B0C012702AE02904820ADF80C105C
:101DB8008DF80E308DF80F50CDE9006214F031FA2D
:101DC8001D4B04464563036000F1380380F8385022
:101DD80069460363303000F8147C14F0A2FD4FF01C
:101DE80081432420E360002363604FF08243A360B3
:101DF800124BA362A3614FF07E53E362636214F057
:101E080010FA0F4B4FF0FF3207702360009BC4603D
:101E1800B34220610262C0E90155C0E90455C0E936
:101E2800065504D002991846394414F09FF9204603
:101E380007B0F0BDA07F0108788601080AD7233CC7
:101E4800988601082DE9F043534B87B004224F6868
:101E5800029302AC836A0E46019200220546694647
:101E68008DF80C203846D3F82C804C4B0094D3F8CE
:101E7800009014F056FD0098A042C7E9069803D0D8
:101E88000299013114F072F9454B0621F768019166
:101E98002A6B009493E803000023029038468DF8DB
:101EA8000E30404BADF80C106946D2F83080D3F8AC
:101EB800009014F036FD0098A042C7E9069803D0B8
:101EC8000299013114F052F9374B05213769019114
:101ED8006A6B009493E803000023029038468DF85B
:101EE8000D30324B8DF80C106946D2F83080D3F89B
:101EF800009014F016FD0098A042C7E9069803D098
:101F08000299013114F032F9294B072177690191BF
:101F1800EA6B009493E803000023ADF80C10090C59
:101F28008DF80F30234B029038468DF80E10694615
:101F3800D2F83080D3F8009014F0F3FC0098A04257
:101F4800C7E9069803D00299013114F00FF91A4B2A
:101F5800B669AA6B009493E803000723ADF80C1048
:101F6800090C01930023029030468DF80F30134B73
:101F78008DF80E106946156B1F6814F0D2FC009896
:101F8800A042C6E9067503D00299013114F0EEF8B3
:101F980007B0BDE8F08300BF6761746500120024D4
:101FA800A87F010870110024B07F0108B81100242F
:101FB800B87F0108D82C0024C07F0108D42C002445
:101FC8002DE9F04389B0D1F80480854A0F4604AC66
:101FD800844906460A25D1F80090234602944FF01A
:101FE800000E07CA03C31A804046736802A98DF819
:101FF8001AE003951D6914F094FC0298A042C8E900
:10200800069503D00499013114F0B0F81323002287
:1020180001A902A80193D7F83C80029414F0FCFBB4
:10202800019B0546DFF8C8C14FF0000E02900493EB
:10203800BCE80F00EB60BCF8003028602B829CF8ED
:1020480002306960AA60AB74019B029A039302F89C
:1020580003E033695A6B002A00F0B380D2F81C9071
:10206800404602A9DD6A14F05CFC0298A042C8E967
:10207800069503D00499013114F078F8132300224F
:1020880001A902A80193D7F84080029414F0C4FB78
:10209800019B0546DFF85CC14FF0000E02900493E7
:1020A800BCE80F00EB60BCF8003028602B829CF87D
:1020B80002306960AA60AB74019B029A039302F82C
:1020C80003E073695A6B002A00F08680D2F81C90EE
:1020D800404602A9DD6A14F024FC0298A042C8E92F
:1020E800069503D00499013114F040F81323002217
:1020F80001A902A80193D7F84480029414F08CFB3C
:10210800019B0546DFF8F0C04FF0000E02900493E3
:10211800BCE80F00EB60BCF8003028602B829CF80C
:1021280002306960AA60AB74019B029A039302F8BB
:1021380003E0B3695A6B002A4AD0D2F81C90404693
:1021480002A9DD6A14F0EDFB0298A042C8E90695E1
:1021580003D00499013114F009F8132301A90022CE
:1021680002A8D7F8488001931F4F029414F054FB3B
:10217800019B054602904FF0000C04930FCFEB60D3
:102188003B8828602B82BB786960AA60AB74019B8E
:10219800029A039302F803C0F3695A6BAAB1D6698D
:1021A800404602A9DD6A14F0BCFB0298A042C8E9C7
:1021B800066503D00499013113F0D8FF09B0BDE8D2
:1021C800F0830A4AD2F800904AE7084A1668E7E717
:1021D800064AD2F80090B2E7044AD2F8009077E7AE
:1021E800C87F0108BC2C002410800108842B00241F
:1021F800D47F0108E87F0108FC7F01082DE9F0473A
:10220800654B86B0054605220E4602AC01920022B7
:1022180077688DF80D20009493E80300EB6902902D
:1022280038468DF80C106946D3F830805B4BD3F8EC
:10223800009014F076FB0098A042C7E9069803D0F6
:102248000299013113F092FF55492346554A0A274E
:10225800D1F800904FF0000ED6F80C80009407CA11
:1022680003C31A8040462B6A69468DF812E001972D
:102278001F6914F056FB0098A042C8E9069703D0DE
:102288000299013113F072FF474B0621376901911A
:102298002A6B009493E803000023029038468DF8D7
:1022A8000E30424BADF80C106946D2F83080D3F8A6
:1022B800009014F036FB0098A042C7E9069803D0B6
:1022C8000299013113F052FF39492346394A0B2745
:1022D800D1F800904FF0000E0094D6F8148007CA89
:1022E80003C323F8022B120C404669461A70EB6AA6
:1022F8008DF813E001971F6B14F013FB0098A042B0
:10230800C8E9069703D00299013113F02FFF2A4B31
:102318000521F76901916A6ADFF8A4800094D8F86A
:10232800009093E803000023029038468DF80C10C3
:1023380069468DF80D30D2F830A014F0F2FA009802
:10234800A042C7E9069A03D00299013113F00EFFA3
:102358001A4A2346366A4FF00A0CAD6A4FF0000E4F
:102368000094D8F8007007CA03C330461A8069463B
:102378008DF812E0CDF804C0ED6A14F0D2FA009896
:10238800A042C6E9067503D00299013113F0EEFEAA
:1023980006B0BDE8F08700BF10850108441F00247F
:1023A800FC2C00242480010830800108CC11002472
:1023B800C42C002438800108448001084C8001089E
:1023C800041200244D4B03222DE9F0431B6889B009
:1023D8004D680F46ADF810301B0C039200228DF8A3
:1023E800123004AC036906468DF813202846D3F84A
:1023F800308002A9424B0294D3F8009014F091FA6D
:102408000298A042C5E9069803D00499013113F057
:10241800ADFE3C4B0821BD6803917269029493E8B4
:102428000300002384E803008DF818302846364B53
:1024380002A9D2F83080D3F8009014F072FA02980A
:10244800A042C5E9069803D00499013113F08EFE25
:10245800F3692E491A782E4B0294002A08BF1946B0
:10246800D7F80C8008460191FDF73CFF0546019915
:1024780020462A4615F012FC08AB03951D4400239C
:1024880005F8103CF3691A78002A33D0214AD2F8AB
:102498000090404602A95D6814F043FA0298A042F1
:1024A800C8E9069503D00499013113F05FFE1A4973
:1024B80023461A4A4FF00A0C3D694FF0000E0F6888
:1024C800F668029407CA03C328461A8002A98DF841
:1024D8001AE0CDF80CC0F66A14F023FA0298A0426C
:1024E800C5E9067603D00499013113F03FFE09B01F
:1024F800BDE8F0830A4AD2F80090CAE7688001086C
:10250800981100246C800108C81100245C8001081F
:1025180058800108EC2C002400120024788001085F
:10252800E82C00242DE9F043594B89B005460622D2
:102538000F4604AC039200227E688DF816200294A0
:1025480093E803006B6804903046ADF8141002A9B4
:10255800D3F82C804F4BD3F8009014F0E2F902988E
:10256800A042C6E9069803D00499013113F0FEFD94
:10257800AB6849491A78494B0294002A08BF1946A2
:10258800D7F8088008460191FDF7ACFE0646019988
:102598002046324615F082FB08AB03961E44002302
:1025A80006F8103CAB681A78002A6CD03C4AD2F87E
:1025B8000090404602A95E6814F0B3F90298A04260
:1025C800C8E9069603D00499013113F0CFFD354BC5
:1025D80005213E6903912A69029493E803000023C8
:1025E800049030468DF815302F4B8DF8141002A941
:1025F800D2F83080D3F8009014F093F90298A042F2
:10260800C6E9069803D00499013113F0AFFD274BB2
:1026180008217E690391AA69029493E803000023C4
:1026280084E803008DF818303046214B02A9D2F80F
:102638003080D3F8009014F074F90298A042C6E9EB
:10264800069803D00499013113F090FD194B02A9A3
:10265800BE6904930423EA69304603930023029475
:102668008DF81430144B156B1F6814F05AF9029842
:10267800A042C6E9067503D00499013113F076FD2E
:1026880009B0BDE8F0830D4AD2F8009091E700BF89
:1026980098800108D82C0024848001088C800108C7
:1026A800C011002410850108441F0024A0800108DF
:1026B800F011002474696D65F02C0024BC1100240D
:1026C8002DE9F0435B4B89B0054606220E4604AC63
:1026D8000392002277688DF81620029493E803008D
:1026E800EB6B04903846ADF8141002A9D3F830808B
:1026F800514BD3F8009014F014F90298A042C7E99E
:10270800069803D00499013113F030FD4B49234654
:102718004B4A0B27D1F800904FF0000E0294D6F8E0
:10272800088007CA03C323F8022B120C404602A9EB
:102738001A702B6C8DF81BE003971F6B14F0F1F8DF
:102748000298A042C8E9069703D00499013113F012
:102758000DFD04223B492B6BF76802943846CDE9FE
:102768000321002202A98DF81420D3F82C80364BBF
:10277800D3F8009014F0D5F80298A042C7E906985B
:1027880003D00499013113F0F1FC30492346304A53
:102798004FF00A0CD1F800904FF0000E3769029400
:1027A80007CA03C31A8038466B6C02A98DF81AE071
:1027B800CDF80CC0D3F8108014F0B3F80298A042FA
:1027C800C7E9069803D00499013113F0CFFC6B6B6D
:1027D80020491A78204B7769002A08BF19460294C5
:1027E80008460191FDF77EFD0646019920463246CE
:1027F80015F054FA08AA6B6B03961644002206F8E3
:10280800102C1A7892B1154A1668384602A95D68E4
:1028180014F087F80298A042C7E9066503D0049926
:10282800013113F0A3FC09B0BDE8F0830C4A166827
:10283800EBE700BFC8800108C02C0024C42C00248A
:10284800388001086761746500120024FC2C00249C
:1028580024800108AC800108B88001089411002484
:10286800F42C00242DE9F04FD1F8048087B00E46EF
:102878000C21944A02AC01910021436805468DF869
:102888001410914F0094D7F800A007CA84E80700F5
:1028980040466946D3F8309014F043F80098A042B7
:1028A800C8E906A903D00299013113F05FFC874AF1
:1028B800D6F83C90AB680094DFF8308292E80300C9
:1028C8000822D8F800A084E80300019200224846B4
:1028D80069468DF81020D3F82CB014F022F800982F
:1028E800A042C9E906AB03D00299013113F03EFCBE
:1028F800774AD6F84090EB68D7F800A0009492E8A1
:1029080003000722ADF80C10090C01920022029076
:1029180048468DF80E1069468DF80F20D3F830B070
:1029280013F0FFFF0098A042C9E906AB03D0029953
:10293800013113F01BFC674AD6F874902B69009498
:10294800D8F800A092E80300082284E80300019266
:102958000022484669468DF81020D3F82CB013F0B1
:10296800E0FF0098A042C9E906AB03D00299013103
:1029780013F0FCFB584AD6F878906B69D7F800A09A
:10298800009492E803000722ADF80C10090C01929C
:102998000022029048468DF80E1069468DF80F20E7
:1029A800D3F830B013F0BDFF0098A042C9E906ABD8
:1029B80003D00299013113F0D9FB484AD6F8AC90FC
:1029C800AB690094D8F800A092E80300082284E8D4
:1029D800030001920022484669468DF81020D3F87A
:1029E8002CB013F09EFF0098A042C9E906AB03D0B3
:1029F8000299013113F0BAFB394AD6F8B090EB6965
:102A0800D7F800A0009492E803000722ADF80C1054
:102A1800090C01920022029048468DF80E10694672
:102A28008DF80F20D3F830B013F07BFF0098A04248
:102A3800C9E906AB03D00299013113F097FB294A83
:102A48000821D8F800A00191D6F8E4802B6A0094F8
:102A580092E80300002284E80300404669468DF8A6
:102A68001020D3F82C9013F05CFF0098A042C8E91E
:102A780006A903D00299013113F078FB1A4B0721FC
:102A8800D6F8E86001916A6A3F68009493E8030009
:102A98000023ADF80C10090C029030468DF80E108A
:102AA80069468DF80F30156B13F03BFF0098A04274
:102AB800C6E9067503D00299013113F057FB07B038
:102AC800BDE8F08FD0800108441F0024E080010891
:102AD800EC800108F48001080081010808810108E0
:102AE800148101081C81010828810108D82C0024C0
:102AF8002DE9F0477A4B8AB0054606220F4606AC08
:102B0800059200227E688DF81E20049493E8030045
:102B18006B6806903046ADF81C1004A9D3F82C80D9
:102B2800704BD3F8009013F0FCFE0498A042C6E95D
:102B3800069803D00699013113F018FBAB696A496E
:102B48001A786A4B0494002A08BF1946D7F80880F7
:102B580008460191FDF7C6FB064601992046324614
:102B680015F09CF80AAB05961E44002306F8103CA5
:102B7800AB691B78002B00F0AF805D4BD3F8009059
:102B88005C4B404604A91B68D3F8F4305E6813F028
:102B9800C8FE0498A042C8E9069603D006990131F8
:102BA80013F0E4FA1323002203A904A8D7F810802D
:102BB8004FF000090393049413F02EFE039B06467E
:102BC800DFF848C104900693DFF844E1BCE80F0041
:102BD800F360BCF800303060404633829CF8023025
:102BE800716004A9B374B260039B049A059302F858
:102BF8000390AB68DEF800901E6B13F092FE049809
:102C0800A042C8E9069603D00699013113F0AEFA3E
:102C180039492346394A0926D1F800904FF0000E69
:102C2800D7F81480049407CA03C31A704046EB68A7
:102C380004A98DF821E005961E6B13F072FE049826
:102C4800A042C8E9069603D00699013113F08EFA1E
:102C58002B4B0521FE6905912A69DFF8B880049499
:102C6800D8F8009093E803000023069030468DF8CA
:102C78001C1004A98DF81D30D2F830A013F051FEB5
:102C88000498A042C6E9069A03D00699013113F0C8
:102C98006DFA1C4A23463E6A4FF00A0C6D694FF0E4
:102CA800000E0494D8F8007007CA03C330461A808F
:102CB80004A98DF822E0CDF814C0ED6A13F031FEB6
:102CC8000498A042C6E9067503D00699013113F0AD
:102CD8004DFA0AB0BDE8F0870B4BD3F800904FE7E8
:102CE80098800108D82C0024848001088C80010871
:102CF800EC110024982C0024D42C002444810108D1
:102D0800448001084C800108E81100243081010842
:102D1800E42C0024041200242DE9F0477C4B88B0F1
:102D2800054606220E4604AC0392002277688DF809
:102D38001620029493E803006B6804903846ADF8B7
:102D4800141002A9D3F82C80724BD3F8009013F01A
:102D5800E8FD0298A042C7E9069803D0049901311A
:102D680013F004FAAB686C491A786C4B0294002A89
:102D780008BF1946D6F8088008460191FDF7B2FA4F
:102D88000746019920463A4614F088FF08AB039796
:102D98001F44002307F8103CAB681A78002A00F09B
:102DA800B3805F4AD2F80090404602A95F6813F0EA
:102DB800B8FD0298A042C8E9069703D004990131EA
:102DC80013F0D4F9574B0521376903912A69029406
:102DD80093E803000023049038468DF81530524BD1
:102DE8008DF8141002A9D2F83080D3F8009013F0AF
:102DF80098FD0298A042C7E9069803D004990131CA
:102E080013F0B4F9494B0821776903916A69029470
:102E180093E80300002384E803008DF8183038464F
:102E2800434B02A9D2F83080D3F8009013F079FD13
:102E38000298A042C7E9069803D00499013113F01B
:102E480095F93C4AA4463C4B0D27D2F800904FF028
:102E5800000AD6F8188002940FCBACE807008CF86B
:102E680000304046EB6902A98DF81DA003971F6B3F
:102E780013F057FD0298A042C8E9069703D00499B9
:102E8800013113F073F92D4923462D4A0927D1F84A
:102E980000904FF0000ED6F81C80029407CA03C3B6
:102EA8001A704046AB6902A98DF819E003971F6BA9
:102EB80013F037FD0298A042C8E9069703D0049999
:102EC800013113F053F91F4B0294366A2A6A93E8CA
:102ED8000300082384E803000DEB03010393002398
:102EE80030468DF81830184B156B1F6813F019FD14
:102EF8000298A042C6E9067503D00499013113F07F
:102F080035F908B0BDE8F087104AD2F800904BE7D1
:102F180098800108D82C0024848001088C8001083E
:102F2800C82C002410850108441F00249884010837
:102F3800E42C0024E811002450810108C411002465
:102F480060810108A0800108F0110024C42C00242D
:102F58002DE9F04F994D89B0804601F13C0605F105
:102F6800380704AC0191BA4655F8043B02A813B3DC
:102F78009A6802945968D6F800900A44FDF716FE3C
:102F880055F8043CD8F8342002A9D3E907B09A428E
:102F980008BF83461B6B4846009313F0C2FC029897
:102FA800009BA042C9F818B0C9F81C3003D0049996
:102FB800013113F0DBF857F8043B02A813B39A6801
:102FC80002945968D6F838900A44FDF7EFFD57F88F
:102FD800043CD8F8342002A9D3E907B09A4208BFC4
:102FE80083461B6B4846009313F09BFC0298009B9A
:102FF800A042C9F818B0C9F81C3003D004990131AF
:1030080013F0B4F8AA4506F10406ADD16C4D019B46
:1030180005F1380703F1AC06BA4655F8043B02A897
:1030280013B39A6802945968D6F800900A44FDF7D9
:10303800BDFD55F8043CD8F8342002A9D3E907B0FF
:103048009A4208BF83461B6B4846009313F069FCFD
:103058000298009BA042C9F818B0C9F81C3003D0E8
:103068000499013113F082F857F8043B02A813B30E
:103078009A6802945968D6F838900A44FDF796FD84
:1030880057F8043CD8F8342002A9D3E907B09A428B
:1030980008BF83461B6B4846009313F042FC029816
:1030A800009BA042C9F818B0C9F81C3003D0049995
:1030B800013113F05BF8554506F10406ADD1D8F897
:1030C8002030DBB101993F4A4D680C2102940391ED
:1030D80000218DF81C103C490F6807CA84E80700D6
:1030E800284602A91E6913F01CFC0298A042C5E9F3
:1030F800067603D00499013113F038F8D8F8243053
:1031080003B30199314A8D6807210294039192E82B
:1031180003000022ADF81410090C049028468DF81D
:10312800161002A98DF817201E69294B1F6813F085
:10313800F8FB0298A042C5E9067603D0049901314C
:1031480013F014F8D8F82830BBB1019B02A8214924
:10315800DD68FDF7F9FCD8F8283002A92846DE6AB0
:103168001D4B1F6813F0DDFB0298A042C5E90676E7
:1031780003D00499013112F0F9FF019B02A9174A03
:10318800D3F81C51042302942846CDE90332144B8A
:1031980000221F68134B8DF81420D3F8346D13F0F8
:1031A800C0FB0298A042C5E9067603D00499013114
:1031B80012F0DCFF09B0BDE8F08F00BFB42B00248B
:1031C800242C00246C810108742B0024A07F0108A2
:1031D800CC2C00247C810108002D00246E6F6E65C4
:1031E8009C110024081200242DE9F04786B00D46F2
:1031F8000646C84968466C68FDF7A6FCC64B776A60
:103208002046D3F80080694613F08BFB0098C4E988
:10321800068702ACA04203D00299013112F0A6FF42
:103228000C22BE4BEF6B0192002200948DF8142003
:10323800BB4AD6F86080D2F8009093E8070084E88B
:1032480007003846694613F06CFB0098A042C7E9AE
:10325800069803D00299013112F088FF0C22B14B75
:103268002F6C0192002200948DF81420AE4AD6F8F3
:103278009C80D2F8009093E8070084E8070038465D
:10328800694613F04EFB0098A042C7E9069803D0A0
:103298000299013112F06AFF6F6C6846A349FDF785
:1032A80053FCA34B38466946D3F80090D6F8D8802B
:1032B80013F037FB0098A042C7E9069803D002999B
:1032C800013112F053FF9B4A0A23A446D5F84C80DB
:1032D80000944FF0000A984F07CAACE80300ACF816
:1032E8000020404601936946D6F8C431D7F80090CB
:1032F8008DF812A0D3F82CA013F013FB0098A0426D
:10330800C8E9069A03D00299013112F02FFFD5F8C7
:10331800508068468949FDF717FCD6F8C831404601
:103328006946D3F82CA0D7F8049013F0FAFA00985D
:10333800A042C8E9069A03D00299013112F016FF9B
:103348007F4A0A23A446D5F8548000944FF0000A17
:10335800D7F8089007CAACE80300ACF8002040464C
:1033680001936946D6F8CC318DF812A0D3F82CA079
:1033780013F0D7FA0098A042C8E9069A03D0029938
:10338800013112F0F3FED5F8588068466D49FDF713
:10339800DBFBD6F8D03140466946D3F82CA0D7F8E5
:1033A8000C9013F0BEFA0098A042C8E9069A03D020
:1033B8000299013112F0DAFED5F85C80684662495C
:1033C800FDF7C2FBD6F8D43140466946D7F81090CD
:1033D800DF6A13F0A6FA0098A042C8E9069703D05E
:1033E8000299013112F0C2FE6F6E68465749FDF727
:1033F800ABFBDFF88081D6F8D83138466946D8F873
:103408000090D3F838A013F08CFA0098A042C7E9CE
:10341800069A03D00299013112F0A8FEAF6E6846F1
:103428004B49FDF791FBD6F8DC3138466946D8F8A8
:103438000490D3F8388013F074FA0098A042C7E9D2
:10344800069803D00299013112F090FE6F6F68461A
:103458004049FDF779FB404B38466946D3F8009060
:10346800D6F8108113F05DFA0098A042C7E90698D3
:1034780003D00299013112F079FEAF6F68463749DF
:10348800FDF762FB364B38466946D3F80090D6F80C
:10349800608113F046FA0098A042C7E9069803D065
:1034A8000299013112F062FEEF6F68462D49FDF76F
:1034B8004BFB2D4B38466946D3F80090D6F834813B
:1034C80013F02FFA0098A042C7E9069803D0029992
:1034D800013112F04BFE254B0722D5F88470D6F83F
:1034E80090810094019293E803000023ADF80C103A
:1034F800090C8DF80F301E4B029038468DF80E10CF
:103508006946D3F8009013F00CFA0098A042C7E976
:10351800069831E088810108F02C00249081010888
:103528009C2C0024A0810108A02C0024B081010853
:10353800A42C0024C0810108D0110024CC810108EA
:10354800D8810108E4810108F0810108FC810108A3
:10355800048201080C820108E81100241482010881
:10356800C42C00241C820108BC11002424820108F8
:10357800782B0024481F002403D00299013112F04F
:10358800F5FDD5F8887068467249FDF7DDFA724B8B
:1035980038466946D6F8C061D3F8008013F0C1F9FF
:1035A8000098A042C7E9068603D00299013112F0BB
:1035B800DDFD6A496846D5F8AC70FDF7C5FA684E76
:1035C8006946684B3846D3F80090D6F8183DD3F8CA
:1035D8002C8013F0A6F90098A042C7E9069803D0FA
:1035E8000299013112F0C2FD5F496846D5F8B07002
:1035F800FDF7AAFAD6F81C3D69463846D3F82C8060
:103608005A4BD3F8009013F08CF90098A042C7E900
:10361800069803D00299013112F0A8FD5449684672
:10362800D5F8B470FDF790FAD6F8203D69463846CB
:10363800D3F82C804F4BD3F8009013F072F9009810
:10364800A042C7E9069803D00299013112F08EFD15
:1036580049496846D5F8B870FDF776FAD6F8243D9A
:1036680069463846D3F82C80444BD3F8009013F0C1
:1036780058F90098A042C7E9069803D00299013189
:1036880012F074FD3E496846D5F8C070FDF75CFA43
:10369800D6F8283D69463846D3F82C80394BD3F8FC
:1036A800009013F03EF90098A042C7E9069803D0AD
:1036B8000299013112F05AFD33496846D5F8C870AD
:1036C800FDF742FAD6F82C3D69463846D3F82C80E7
:1036D8002E4BD3F8009013F024F90098A042C7E9C4
:1036E800069803D00299013112F040FD2849684636
:1036F800D5F8CC70FDF728FAD6F8303D694638463B
:10370800DE6A244BD3F8008013F00BF90098A0422E
:10371800C7E9068603D00299013112F027FDD5F8D2
:10372800E45068461C49FDF70FFA1C4A1C4B284612
:1037380069461768D3F80C6113F0F3F80098A042B3
:10374800C5E9067603D00299013112F00FFD06B0E3
:10375800BDE8F0872C8201087C2B00243482010804
:1037680008120024841100244082010888110024D2
:103778004C8201088C110024588201089011002401
:10378800648201080012002470820108B01100242C
:103798007C820108B411002488820108842B00244B
:1037A800882B00242DE9F84381EAE1740546CE0F01
:1037B800A4EBE174092C73D9632C4DD9B4F57A7F45
:1037C8007BD342F20F739C4274D92046012105E055
:1037D800634555D9734559D343455CD90346384A9F
:1037E800384F8946A2FB0302DFF8E4C0BB42DFF88A
:1037F800E4E0DFF8E4804FEA523001F10401E7D851
:1038080009F10307314405F1080328462D222B60EE
:1038180013F06DF82B682C481E44F1192B4B6422C9
:10382800A44642F20F77A3FB04E30239BC454FEAF2
:10383800531302FB13421C4600EB420310F81220FC
:103848005B784A708B70E9D8BCF57A7F0ED2303439
:1038580028463470BDE8F88300F10803B11C2D2216
:10386800036013F044F82B6817481E4400EB440328
:1038780010F8142028465B7832707370BDE8F8831E
:1038880009F105090F4609EB0601BCE709F1060134
:1038980009F10507B6E709F1070109F10607B1E7DC
:1038A80000F10803711C2D22036013F020F82B6827
:1038B8001E44CCE703270421A4E702270321A1E73C
:1038C8005917B7D19F860100B08601081F85EB51B3
:1038D8003F420F0080969800FFE0F505D1ED037A8E
:1038E800DFEDBB6ABDEEE77A2DE9F04FB8EEC77A97
:1038F8000C46A9B0096B626B064677EEC77A06AF2D
:103908000A4404A8049767EEA67AFDEEE77A17EE54
:10391800905A002DB8BF6D42FDF748F96FF040434B
:10392800059A9B1A012B40F2D8810222A94904A8C2
:1039380013F0D8F8D4ED037AFDEEE77A17EE909AF3
:1039480089EAE974A4EBE9744FEAD979092C40F2C1
:10395800AD81632C40F22281B4F57A7FC0F0B98141
:1039680042F20F739C4240F2B081204601210BE0E5
:10397800994A934240F24481984A9342C0F0468162
:10398800974A934240F26A810346964ADFF868C232
:103998008A46A2FB0302043163454FEA5230E7D856
:1039A8000AF1030A49440AA80DF130082D220390B0
:1039B800CDF8288012F09BFF0A9B03989944DFF802
:1039C8003CC209EB0A01884B6422A6460239A3FBD4
:1039D80004A35B0902FB13421C4642F20F730CEB73
:1039E800420A1CF812209E454A709AF801208A70F3
:1039F800E9D8BEF57A7F80F0E180303489F800405C
:103A0800049BDDF814C0BB420B9A14BF06990F2122
:103A18000CEB02048C420A9908D9414514BFDDF821
:103A280030E04FF00F0E744540F2FC8004A80DF111
:103A3800480913F057F88446CDF8409004465CF8DE
:103A4800083B634500F0FF801093A36812936368F6
:103A580011930023C4F800C0636023726FF04043E1
:103A6800119A9A4200F039810122604910A80DF19B
:103A7800600A13F037F88446CDF858A004465CF87D
:103A8800083B634500F007811693836818936368C1
:103A98000022092D17932272C4F800C062607BDCF3
:103AA800179A6FF040439A4200F01781012250495B
:103AB80016A80DF1780B13F015F88446CDF870B000
:103AC80004465CF8083B634500F0DA801C93836881
:103AD8001E936368294622A81D930023C4F800C0DA
:103AE8006360237224ACFFF75DFE1C9B1D9D5B4544
:103AF800239A14BF1E990F21A8188842229908D921
:103B0800A14214BFDDF890C04FF00F0C604540F2A1
:103B180082801CA812F0E6FF034606F10801316016
:103B280053F8082B9A4200F09E8032608268B26097
:103B38000360436873600023037243602298A042C5
:103B480003D02499013112F011FB1C98584503D079
:103B58001E99013112F00AFB1698504503D01899A6
:103B6800013112F003FB1098484503D01299013136
:103B780012F0FCFA0A98404503D00C99013112F072
:103B8800F5FA0498B84203D00699013112F0EEFA1A
:103B9800304629B0BDE8F08F164989E70AA80DF12B
:103BA800300809F102012D220390CDF8288012F087
:103BB8009EFE0A9BDFF844C0994403980CEB44032B
:103BC8001CF814205B7889F8002089F8013017E781
:103BD8000000C842B88201083F420F008096980052
:103BE800FFE0F5055917B7D11F85EB51BC820108D5
:103BF8009C820108509101089F860100B086010847
:103C08000AF105038A4603EB0901CCE60AF106012D
:103C18000AF1050AC6E6002222A80095114612F00C
:103C2800E3FE79E70022CDF800C00DF148091146FE
:103C380012F0DAFE8446CDF8409004465CF8083B62
:103C480063457FF401AFCE46A068DCF80410DCF8C9
:103C58000820DCF80C30AEE80F00F8E60AF107019E
:103C68000AF1060A9EE6D0F808E0D3F804C09D6879
:103C7800DA68C6F808E0C6F80CC03561726157E723
:103C8800DE468068DCF80410DCF80820DCF80C302C
:103C9800AEE80F001DE7D6468068DCF80410DCF8B3
:103CA8000820DCF80C30AEE80F00F0E60AA80DF1A9
:103CB800300809F101012D220390CDF8288012F077
:103CC80016FE0A9B0398994497E64FF0030A0421CD
:103CD80068E64FF0020A032164E6014812F094FDF9
:103CE800A0820108D1ED037A9FEDB97A67EE877A51
:103CF8002DE9F047FDEEE77AB64C054664270E46F7
:103D0800ACB017EE903A096B726B84FB0340DC177A
:103D18000A44C4EB601402A807FB143304AF83EA17
:103D2800E3740297A4EBE374FCF740FF6FF04043A1
:103D3800039A9B1A012B40F293810222A64902A8FA
:103D480012F0D0FED6ED037A9FEDA47A08A867EEAC
:103D5800877AFDEEE77A17EE901AFFF723FD029BAC
:103D6800039EBB42099A14BF04990F21B0188842D8
:103D780008990AD90DF1280C614514BFDDF828C04F
:103D88004FF00F0C604540F2EC8002A80DF140089E
:103D980012F0A8FE0646CDF83880844656F8083B4F
:103DA800B34200F04A810E9383681093DCF8043024
:103DB8000F930023CCF80060CCF804308CF808305E
:103DC8000F9A6FF040439A4200F04A8101228449D9
:103DD8000EA816AE12F086FE8646149684465EF845
:103DE800083B734500F00481149383681693DCF84C
:103DF80004300022092C15938CF80820CCF800E038
:103E0800CCF8042040F3A480764914A80DF1700979
:103E180012F068FE8646CDF8689084465EF8083B46
:103E2800734500F0F0801A9383681C93DCF8043023
:103E3800214620A81B930023CCF800E0CCF80430DE
:103E48008CF80830FFF7AEFC1A9B1B9C4B45219A57
:103E580014BF1C990F21A018884220990AD90DF186
:103E6800880C614514BFDDF888C04FF00F0C604521
:103E780040F292801AA828AC12F034FE86462694A6
:103E880084465EF8083B734500F095802693DCF87D
:103E980008302893DCF8043027930023CCF800E09E
:103EA800CCF804308CF808306FF04043279A9A42D7
:103EB80000F0D68001224C4926A812F013FE05F125
:103EC80008010346296053F8082B9A4200F0A6809F
:103ED8002A608268AA60036043686B6000234360BD
:103EE80003722698A04203D02899013112F03EF9B6
:103EF800209822AB984203D02299013112F036F96A
:103F08001A98484503D01C99013112F02FF91498DA
:103F1800B04203D01699013112F028F90E984045A5
:103F280003D01099013112F021F908980AAB984290
:103F380003D00A99013112F019F90298B84203D056
:103F48000499013112F012F928462CB0BDE8F08727
:103F5800159A6FF040439A4200F08280012223496B
:103F680053E70022009608A80DF14008114612F008
:103F78003BFD8446CDF8388006465CF8083B63452F
:103F880063D00E938368109373680F930023C6F869
:103F980000C07360337213E70022009420A828AC95
:103FA800114612F021FD8646269484465EF8083BA9
:103FB80073457FF46BAFA246DCF80800DEF8041006
:103FC800DEF80820DEF80C30AAE80F0062E700BF30
:103FD8000050C3471F85EB51B88201080000C84252
:103FE800BC82010850910108C08201089C82010826
:103FF800B1468068DEF80410DEF80820DEF80C30E0
:10400800A9E80F00F3E6CA468068DEF80410DEF877
:104018000820DEF80C30AAE80F0007E7D0F808A05F
:10402800D3F804E0D3F808C0DA68C5F808A0C5F8E2
:104038000CE0C5F810C06A614DE7C6468068716833
:10404800B268F368AEE80F00B0E6C6468068DCF8F0
:104058000410DCF80820DCF80C30AEE80F0093E719
:10406800014812F0D1FB00BFA0820108D1ED037A0C
:104078009FEDB97A67EE877A2DE9F047FDEEE77A8A
:10408800B64C054664270E46ACB017EE903A096B5D
:10409800726B84FB0340DC170A44C4EB601402A86B
:1040A80007FB143304AF83EAE3740297A4EBE374C9
:1040B800FCF77CFD6FF04043039A9B1A012B40F2FA
:1040C80093810222A64902A812F00CFDD6ED037ACC
:1040D8009FEDA47A08A867EE877AFDEEE77A17EED7
:1040E800901AFFF75FFB029B039EBB42099A14BF1D
:1040F80004990F21B018884208990AD90DF1280CA3
:10410800614514BFDDF828C04FF00F0C604540F240
:10411800EC8002A80DF1400812F0E4FC0646CDF848
:104128003880844656F8083BB34200F04A810E9323
:1041380083681093DCF804300F930023CCF80060F8
:10414800CCF804308CF808300F9A6FF040439A424C
:1041580000F04A81012284490EA816AE12F0C2FC72
:104168008646149684465EF8083B734500F0048141
:10417800149383681693DCF804300022092C1593F5
:104188008CF80820CCF800E0CCF8042040F3A48098
:10419800764914A80DF1700912F0A4FC8646CDF8F2
:1041A800689084465EF8083B734500F0F0801A93E7
:1041B80083681C93DCF80430214620A81B93002355
:1041C800CCF800E0CCF804308CF80830FFF7EAFAB5
:1041D8001A9B1B9C4B45219A14BF1C990F21A018B0
:1041E800884220990AD90DF1880C614514BFDDF881
:1041F80088C04FF00F0C604540F292801AA828AC96
:1042080012F070FC8646269484465EF8083B734597
:1042180000F095802693DCF808302893DCF8043009
:1042280027930023CCF800E0CCF804308CF8083051
:104238006FF04043279A9A4200F0D68001224C49F9
:1042480026A812F04FFC05F108010346296053F82F
:10425800082B9A4200F0A6802A608268AA60036050
:1042680043686B600023436003722698A04203D022
:104278002899013111F07AFF209822AB984203D097
:104288002299013111F072FF1A98484503D01C9900
:10429800013111F06BFF1498B04203D01699013127
:1042A80011F064FF0E98404503D01099013111F0C8
:1042B8005DFF08980AAB984203D00A99013111F0C2
:1042C80055FF0298B84203D00499013111F04EFF0E
:1042D80028462CB0BDE8F087159A6FF040439A4203
:1042E80000F082800122234953E70022009608A8A3
:1042F8000DF14008114612F077FB8446CDF838805E
:1043080006465CF8083B634563D00E9383681093B8
:1043180073680F930023C6F800C07360337213E705
:104328000022009420A828AC114612F05DFB8646B6
:10433800269484465EF8083B73457FF46BAFA2462B
:10434800DCF80800DEF80410DEF80820DEF80C308F
:10435800AAE80F0062E700BF0050C3471F85EB5172
:10436800B88201080000C842BC82010850910108C7
:10437800C08201089C820108B1468068DEF80410FA
:10438800DEF80820DEF80C30A9E80F00F3E6CA468C
:104398008068DEF80410DEF80820DEF80C30AAE8A1
:1043A8000F0007E7D0F808A0D3F804E0D3F808C056
:1043B800DA68C5F808A0C5F80CE0C5F810C06A614D
:1043C8004DE7C64680687168B268F368AEE80F00CA
:1043D800B0E6C6468068DCF80410DCF80820DCF893
:1043E8000C30AEE80F0093E7014812F00DFA00BF59
:1043F800A082010830B5034601F140050C68103170
:1044080051F80CEC103351F808CC51F8042CA9429F
:1044180043F8104C43F80CEC43F808CC43F8042C50
:10442800ECD130BD30B500F1080400F14805A4F125
:1044380008038C469CF800E00AB18EF0010E03F8E0
:1044480001EBA3420CF1010CF4D103F1080408318B
:10445800AC42ECD130BD00BF70B54FF0FF33002641
:1044680004460D46036206704160C0E90266C0E971
:104478000466C0E9066671B13346084A0849284609
:1044880011F076FE0146334628466161054A044923
:1044980011F06EFE05462046A56070BDD087010864
:1044A800BC850108CC85010810B501F5A87C01F58B
:1044B800C47E0A60ACF5A8735A6838330024634593
:1044C800D461F9D103F1040CF445F3D10368BDE8D4
:1044D80010401B68184700BF2DE9F0414FF0FF332B
:1044E800804600F5A87600F5C4770360A6F5A875A0
:1044F8002020383511F095FE04462022002113F0C3
:10450800F5FB002204F10803B54245F8344C227249
:104518002360EDD12E1DBE42E8D14046BDE8F081B2
:104528000D4B002210B4D3E902105C68DA631A65F7
:104538001A6958639A63986AC3E90B4159695C6AB6
:104548001964D3E90621C3E915405A641A6A5DF86B
:10455800044BC3E912127047882B00242DE9F04F51
:104568009946036883B00E461B694946804615463E
:104578009847B9F1000F00F0D1802B1F0024DFF815
:10458800F8B10C35774F01933368F7EE006ADBF822
:104598001420B6EE007A03EB840310464FEA840A2F
:1045A800D3ED007A50F8243F77EEA67A834267EE7F
:1045B800877AC2ED0D7A05D09A681B68C2ED0C7A2D
:1045C8008342F9D17368F7EE006ADBF81820B6EE7B
:1045D800007A53441046D3ED007A50F8243F77EE22
:1045E800A67A834267EE877AC2ED0D7A05D09A687B
:1045F8001B68C2ED0C7A8342F9D1B368F7EE006A02
:10460800DBF81C20B6EE007A53441046D3ED007A4E
:1046180050F8243F77EEA67A834267EE877AC2ED98
:104628000D7A05D09A681B68C2ED0C7A8342F9D1DD
:10463800F368F7EE006ADBF82010B6EE007A534410
:104648000846D3ED007A50F8242F77EEA67A8242F6
:1046580067EE877AC1ED0D7A05D093681268C3EDCD
:104668000C7A8242F9D1D8F8003040465B69984705
:104678003D48019A50F8043BB7EE007AFFEE006A15
:10468800D3ED0C7AF4EEC77AF1EE10FA49DDF0EECC
:10469800477A52F8043F53449542C3ED007AE9D172
:1046A800D7F8283D3148D3ED0C7AF5EE407AF1EE93
:1046B80010FA14BF0121002107F006FFD7F82C3D9E
:1046C800D3ED0C7AF5EEC07AF1EE10FA31D4B7EEEC
:1046D800007AF4EEC77AF1EE10FA38DD40F6FF7290
:1046E8000021234807F0CEFDD7F8303DD3ED0C7AF2
:1046F800F5EEC07AF1EE10FA1DD4B7EE007AF4EEBA
:10470800C77AF1EE10FA18DD40F6FF720134012184
:10471800174807F0B7FDA1457FF436AF03B0BDE8F1
:10472800F08FF4EE667AF1EE10FA48BFF0EE667A92
:10473800AFE70022D4E70022E8E79FED0E7A67EEA4
:10474800877AFCEEE77A17EE903A9AB2DEE79FEDA9
:10475800097A67EE877AFCEEE77A17EE903A9AB212
:10476800BEE700BF08120024201F0024011F0024F8
:104778002812002400F07F45882B00240000000048
:1047880030B5037F04462DED028B83B00191002BD9
:1047980041D007EE901A90ED067A90ED036A15461F
:1047A800F8EEE77AD0ED0B6AD0ED0A5A036AA7EE65
:1047B800876AD0ED027A76EEE55A9FED575AD31AFA
:1047C80085EE858AB4EEE76AF1EE10FA60DDC72B54
:1047D800C4ED037A07EE903A74D8F8EEE77ADFED85
:1047E8004F5A85EEA76AA8EE067AF4EEC76AF1EE8C
:1047F80010FA07D4D4ED0A6AF4EEC76AF1EE10FA9B
:1048080076FE876A0123C4ED066A2562237503B024
:10481800BDEC028B30BDD0ED037A90ED096AF0EE65
:10482800676A87EE867A9FED3A4BBDEEC77AB8EE97
:10483800C77AE6EE476AF5EEC06AF1EE10FAD8BF1D
:10484800F1EE666AB7EEE65AB4EEC45BF1EE10FA22
:104858000BDBF5EEC07A019BF1EE10FA4BDD002B75
:1048680050DD76EE666A77EEA67A9DED017AD4ED94
:10487800026AB8EEC77AE6EE077AF4EEE67AF1EE67
:1048880010FA15DDC4ED036A03B0BDEC028B30BD30
:10489800D0ED017AB4EEE76AF1EE10FA58BFF0EE07
:1048A800467AC72BC4ED037A07EE903A95D909E00A
:1048B800D4ED016AF4EEE67AF1EE10FA58BFF0EEA4
:1048C800676ADFE7F8EE677A9FED147AB1EE001BAE
:1048D80087EE870AB7EEC00A12F05AF994ED067A05
:1048E800B7EEC88AD4ED0B6AB7EEC77AA0EE487B5C
:1048F800B7EEC77B79E7002B02DD77EEA67AB4E73F
:1049080076EE666A77EEE67AAFE700BFAFF300802F
:104918008DEDB5A0F7C6B03E00007A4400004843CC
:104928001F4B70B50025012604462DED068BB0EE11
:10493800618A0360F0EE40AA00F13803B0EE60AA85
:104948000677F0EE419A0363B0EE429A4563F0EEC3
:10495800628A80F83850303011F0E3FFC4ED03AAC2
:1049680084ED01AA2420C4ED029A84ED0A8A84ED1C
:104978000B9A84ED068AC4ED098A11F052FC4FF0B7
:10498800FF3306700362C4602061BDEC068BC0E98A
:104998000155C0E90455C0E90655204670BD00BF61
:1049A80078860108436800F11002203093ED030A6D
:1049B80052F8043B596BB9B1196AD9B1D1ED037AF0
:1049C80030EE670A596A91B191ED037A996A77EEE8
:1049D800877A93ED0C7A29B14B6B1BB1D1ED0C6A38
:1049E80027EE267AA7EE870A8242E1D17047B7EE12
:1049F800007AEBE7DFED017AE4E700BF0000000092
:104A080070B52A4B0446154640F8043B04F10C03E4
:104A180063600023A3602373C4E90B3304F1240308
:104A2800C4E9093311F07DFFE561402011F0F9FB7D
:104A380005F1080C064648358646ACF10802714671
:104A480012F8013B83F00103624501F8013BF7D1FD
:104A580002F1080C0EF1080EAC45EED126622420B6
:104A680011F0DFFB00264FF0FF32032305464460B8
:104A78000262037033460E4A0E49C0E90266C0E975
:104A88000466C0E90666204611F072FB3346686189
:104A98002046094A074911F06BFB084A084BA860F1
:104AA80020462563C5E9062370BD00BFA489010817
:104AB800D0870108BC850108CC850108C509000814
:104AC800D50900080022A34BA349F0B587B0C0F868
:104AD8000C210546016002AC8DF80E2093E8030016
:104AE8000623009402903820ADF80C10019311F0C1
:104AF80098FB9A4B694606461A68FFF781FF0098AB
:104B08006E60A04203D00299013111F02FFB944B43
:104B1800009493E8030006230290382001930023B1
:104B2800ADF80C108DF80E3011F07BFB8D4B6946FB
:104B380006461A68FFF764FF0098AE60A04203D0EB
:104B48000299013111F012FB874B009493E803009E
:104B580006230290382001930023ADF80C108DF83D
:104B68000E3011F05EFB814B694606461A68FFF766
:104B780047FF0098EE60A04203D00299013111F07E
:104B8800F5FA7B4B009493E8030006230290382043
:104B980001930023ADF80C108DF80E3011F041FB95
:104BA800744B694606461A68FFF72AFF00982E617B
:104BB800A04203D00299013111F0D8FA6E4A234677
:104BC80000260A27009407CA03C338201A808DF8E4
:104BD8001260019711F025FB684B694606461A6872
:104BE800FFF70EFF00986E61A04203D002990131D1
:104BF80011F0BCFA624A234600260A27009407CA25
:104C080003C338201A808DF81260019711F009FB50
:104C18005C4B694606461A68FFF7F2FE0098AE61DB
:104C2800A04203D00299013111F0A0FA564A234656
:104C380000260A27009407CA03C338201A808DF873
:104C48001260019711F0EDFA504B694606461A6852
:104C5800FFF7D6FE0098EE61A04203D00299013119
:104C680011F084FA4A4A234600260A27009407CA04
:104C780003C338201A808DF81260019711F0D1FA19
:104C8800444B694606461A68FFF7BAFE00982E623A
:104C9800A04203D00299013111F068FA3E4A234636
:104CA80000260927009407CA03C338201A708DF814
:104CB8001160019711F0B5FA384B694606461A6833
:104CC800FFF79EFE00986E62A04203D00299013160
:104CD80011F04CFA324A234600260927009407CAE5
:104CE80003C338201A708DF81160019711F099FAF2
:104CF8002C4B694606461A68FFF782FE0098AE629A
:104D0800A04203D00299013111F030FA2420002684
:104D180011F087FA4FF0FF320446334602620670FC
:104D28004560214A2149C0E90266C0E90466C0E934
:104D38000666284611F01CFA3346606128461C4A6C
:104D48001A4911F015FA03462846C5F80C41A36024
:104D580007B0F0BDC4820108C8890108A011002469
:104D6800CC820108A4110024D4820108A8110024CF
:104D7800DC820108AC110024E482010874110024CB
:104D8800F082010878110024FC8201087C110024BB
:104D9800088301088011002414830108F8110024F5
:104DA80020830108FC110024D0870108BC85010874
:104DB800CC85010870B51C4B04460026154640F802
:104DC800043B04F10C03A66063602673C4E908661B
:104DD800C4E90A6611F0A5FD0023E56124202363D8
:104DE800666311F01EFA4FF0FF3305460670036242
:104DF800334644600D490E4AC0E90266C0E90466BC
:104E0800C0E90666204611F0B3F9334668612046CA
:104E18000649084A11F0ACF9074A084BA860204631
:104E2800E562C5E9062370BDEC890108BC85010867
:104E3800D0870108CC850108E5090008F5090008B4
:104E48002DE9F04304461E46334B002587B08846BB
:104E580040F8043B04F10C033146A5606360174633
:104E68002573DDF83890C4E90855C4E90A5511F0EE
:104E780058FD00236846656323636762D6E900121C
:104E880002AE0A440096C4E90798FBF78FFE6FF05C
:104E98004043019A9B1A0A2B3BD90B221F496846AB
:104EA80011F020FE382011F0BCF94A466946054643
:104EB800FFF780FF0098A562B04203D00299013144
:104EC80011F054F92420002611F0ABF94FF0FF320D
:104ED80005463346026206704460114A1149C0E92A
:104EE8000266C0E90466C0E90666204611F040F98A
:104EF8003346686120460C4A0A4911F039F90B4AD1
:104F08000B4BA8602046E562C5E9062307B0BDE85B
:104F1800F083084811F078FCEC8901082C8301081B
:104F2800D0870108BC850108CC850108E50900087F
:104F3800F5090008A08201082DE9F04F99B01D4637
:104F480080460C46049316466A4B002103922022A1
:104F580040F8103B0DF1380BDDF888A0029012F0F4
:104F6800C5FE0023C8F804403024C8F80C50C8F81F
:104F78000860C8F83030CDF81480039B9847049B2C
:104F88000646984707460CA8CDF830B0DAE9001273
:104F98000A44FBF70BFE0D9A6FF040439A4200F06B
:104FA800A580012254490CA80DF1500811F09AFD72
:104FB80001212D2212A8CDF8488011F098FC129BEF
:104FC8001C700C9B0D9D5B45139A14BF0E990F2105
:104FD800A8188842129907D9414514BFDDF850C076
:104FE8004FF00F0C604566D90CA80DF1200911F09F
:104FF80079FD8446CDF8189005465CF8083B634572
:1050080069D00693AB6808936B6838200793002330
:10501800C5F800C06B602B7211F003F9239B3A4668
:105028003146009306AB0546FFF70AFF0698029B38
:10503800484543F8045B029303D00899013111F005
:1050480095F81298404503D01499013111F08EF863
:105058000C98584503D00E99013111F087F80134A6
:10506800E4B2342C89D12420DDF81480002511F015
:10507800D8F84FF0FF3204462B4605700262C0F89C
:1050880004801E4A1E49C0E90255C0E90455C0E91A
:105098000655404611F06CF82B4660614046194AA7
:1050A800174911F065F803464046C8F83040A36038
:1050B80019B0BDE8F08F0022009512A80DF1200963
:1050C800114611F091FC8446CDF8189005465CF81D
:1050D800083B634595D1CE46A868DCF80410DCF897
:1050E8000820DCF80C30AEE80F008DE7064811F018
:1050F8008BFB00BFD4890108A8830108D087010869
:10510800BC850108CC850108A0820108DFED117A71
:1051180087EE806A38B50446006BFFF743FCE56903
:10512800606B20EE060A85ED020AFFF73BFC20EED5
:10513800060AA06B85ED030AFFF734FC20EE060A89
:10514800E06B85ED050AFFF72DFC20EE060A85EDDC
:10515800000A38BD00007042F0B52DED048B83B015
:10516800044640690191FFF71DFCB0EE408A04F542
:10517800E275264604F5EC7755F8040BB0EE480ABC
:10518800FFF7C4FFBD42F7D104F1B40523461A6DF9
:1051980001213C33D2ED0C7AF5EE407AF1EE10FAAB
:1051A80008BF1971AB42F2D1D4F8F4301B78002B48
:1051B80047D09FEDDD6AD4F8EC00FFF7F3FBB4EEBF
:1051C800460AB7EE007AF1EE10FA40F0548184ED09
:1051D800426AD4ED400AD4ED417AD4F8E40077EE7F
:1051E800E07AE7EE870AFFF7DDFBB2EE087AF0EE29
:1051F800408AB0EE000AC0EE870A12F005F8DFED2B
:10520800CB7ADFEDCB6AD4F8F87020EE277AB2EECD
:10521800006A67EE287A67EE867AF4EEE67AF1EEAF
:1052280010FA00F34A81F5EEC07AF1EE10FA00F1B7
:105238008781D4F8E800C7ED027AFFF7B3FB87ED62
:10524800010AD4F840311B78002B5BD0D4F84C010C
:10525800FFF7A8FBD4F85401B0EE406AFFF7A2FBB1
:10526800D4F85001F0EE408AFFF79CFBD4F85801BF
:10527800B0EE409AFFF796FBDFEDAD7AF0EE409A7C
:10528800D4F84401B4EEE76AF1EE10FA40F3EA808C
:10529800B0EE676AB0EE460A10F05CFCDFEDA47A67
:1052A800D4F84401F4EEE78AF1EE10FA00F3108125
:1052B800F5EEC08AF1EE10FA00F14D81B0EE680A01
:1052C80010F05EFBF7EE007AD4F84401F4EEE79AAA
:1052D800F1EE10FA40F31881F0EE679AB0EE690A21
:1052E80010F06CFCF7EE007AD4F84401B4EEE79ABB
:1052F800F1EE10FA40F3FF80B0EE679AB0EE490A7B
:1053080010F00CFBD4F81C311B78FBB1D4F8300139
:10531800FFF748FB9FED877A48F69F43D4F8207142
:10532800C7EE087A9FED847A27EE800A20EE070AF6
:10533800FDEEC07A17EE902AB8EEE77A9A4230EE80
:10534800470A28BF1A4687ED000ABA60D4F80C72DB
:10535800002F71D0D4F8043294ED7A7AD3ED036A31
:105368009868B4EEE67AF1EE10FA6BD4F4EEC76AF8
:10537800F1EE10FA11D5B7EEC77A9FED695B37EEFB
:10538800457BB7EEC77BB4EEE67AF1EE10FA40F152
:10539800C480B0EE667AC4ED7A6AD4F8E41181ED7F
:1053A8000D7A51F8243F994205D09A681B6882ED1E
:1053B8000C7A9942F9D14538D4F8F4218242C4E9EB
:1053C8007D0200F0CB8007EE900AF8EEE77A96F8B7
:1053D8004030B7EE007A00210022002B65D1D6EDCF
:1053E8000D6A96ED0E6AD6ED0F5A36EE666A86EDB0
:1053F8000F7A37EE657AC6ED0E7AE6EE076AC6EDE5
:105408000D6A3C36B542E2D194F80C31002B62D1DA
:10541800F7EE005A94ED407A94ED416AD4ED426A71
:1054280036EE476AC4ED417A75EEE67AC4ED425A23
:10543800A6EE277A84ED407AC4F8FC7103B0BDEC7F
:10544800048BF0BDB7EEC77A9FED355B37EE057B71
:10545800B7EEC77BB4EEE67AF1EE10FA99DC84ED8C
:105468007A7A83E7B5EEC06AF1EE10FA7FF512AFEB
:105478009FED2D6A0EE7D4ED805ADDED017A87EEB7
:10548800255AD4ED426AF8EE677AC5EE005AE7EE7F
:10549800E56AF4EEC66AF1EE10FA4CBFF0EE466A21
:1054A80037EE667AC4ED426A93E686F84010F263F6
:1054B800C6ED0D7AC6ED0E7AA3E7F0EE667AD4F85B
:1054C800E800C7ED027AFFF76DFA87ED010AB8E642
:1054D800F0EE678AF2E600220023C4ED407AC4EDBC
:1054E800417A84F80C21C4F80831C4F8FC7103B07F
:1054F800BDEC048BF0BDB5EEC09AF1EE10FA7FF565
:10550800FDAE9FED099AF9E6F5EEC09AF1EE10FAB4
:105518007FF5E4AEDFED049AE0E684ED7A7A3CE7C5
:105528007B14AE47E17A843F000000000000DC43B2
:1055380000401C470000704200803B47000000000C
:105548005FED027AD4F8E800C7ED027AFFF72AFA8D
:1055580087ED010A75E65FED078AAFE6D4F8FC210E
:10556800BA427FF430AF67E72DE9F04FC04B0546EC
:1055780000270E4604464FF0010BDFF834832DED6B
:10558800028B45F8043B00F10C039FEDBA8ABBB0CF
:10559800436087600DF1180A0773C76180ED098AB7
:1055A8000392C0E90A77C0E90C77C0E90E77382082
:1055B80010F037FE3146E061284611F0B2F9AE4BE3
:1055C8008DF81E70CDF810A093E80300062306900E
:1055D8004820ADF81C10059310F023FE00F13803A5
:1055E8000546476304A980F83870303000F814BCC9
:1055F800036040F8308C11F094F9A04B242085ED1D
:10560800018AEB60EB626B629D4BAB62AB614FF062
:105618008443AB6010F005FE4FF0FF3380F800B014
:105628000DF1300B0362C5602861CDF828B0C0E9E0
:105638000177C0E90477C0E90677D6E90012914FEF
:105648000AA80A442F60FBF7B1FA6FF040430B9A9F
:105658009B1A062B40F2108207228B490AA811F0E8
:1056680041FA342010F0DDFD0AAB2946874A009341
:105678000546874B1B680193864BFFF75DFC0A982C
:105688002563584503D00C99013110F06FFD04983B
:10569800504503D00699013110F068FD7E4B4FF05C
:1056A800000B0DF1480A4FF001098DF84DB0CDF807
:1056B80040A093E8030005231290482011938DF829
:1056C8004C1010F0AEFD00F138020546C0F834B0B9
:1056D80010A980F838B0303000F8149C026040F807
:1056E800308C11F01EF9654A2420EA60EA626A6289
:1056F800634AAA62AA6100226A604FF08442AA60E3
:1057080010F08FFD4FF0FF3380F800900DF158092D
:10571800C560286103622F60D6E90012C0E901BBA9
:10572800C0E904BBC0E906BB0DF1600B0A4448465A
:10573800CDF858B0FBF73AFA6FF040421799521A71
:10574800052A40F2998106225449484611F0CAF9BF
:10575800342010F066FD524BCDF8009029461B68A6
:1057680005464A4A01934B4BFFF7E6FB16986563DB
:10577800584503D01899013110F0F8FC109850459D
:1057880003D01299013110F0F1FC464B4FF0000B99
:105798000DF1780A8DF87FB0CDF870A093E803007A
:1057A8000723ADF87C10090C1E9048208DF87E1058
:1057B8001D9310F036FD012300F138020546C0F8AC
:1057C80034B003771CA980F838B03030026040F854
:1057D800308C11F0A6F84FF07C522420EA60284A59
:1057E800AA62AA61254AEA626A6200226A604FF0E8
:1057F8008442AA6010F015FD0123C56003704FF0C4
:10580800FF33286103622F60D6E90012C0E901BBAB
:10581800C0E904BBC0E906BB0DF1900B0A4422A8FD
:10582800CDF888B0FBF7C2F96FF04043239A9B1A72
:10583800072B40F2218108221B4922A811F052F9B6
:10584800342010F0EEFC22AB2946104A009305469E
:10585800164B1B6801930F4BFFF76EFB2298A5634D
:10586800584527D02499013110F080FC22E000BF70
:10587800048A010800000000A87F0108CDCCCC3DB7
:105888006F12833A88860108388301088D1600084C
:105898007011002421150008B07F01084083010819
:1058A800B8110024C07F010848830108D42C0024C3
:1058B800788601081C98504503D01E99013110F0D4
:1058C80055FC6F4B4FF0000B0DF1A80A8DF8AFB0E7
:1058D800CDF8A0A093E803000723ADF8AC10090C9D
:1058E8002A9048208DF8AE10299310F09AFC00F108
:1058F8003803C0F800804FF001080546036328A963
:1059080080F81C803030C0F804B080F808B011F07E
:1059180008F84FF07E532420AB605A4BAB62AB6162
:10592800594BEB6000236B60584BEB62584B6B6232
:1059380010F077FC4FF0FF3380F800800DF1B808C5
:105948002F6030AF0362C56028612E97D6E9001238
:10595800C0E901BB0A44C0E904BBC0E906BB404634
:10596800FBF724F96FF040432F9A9B1A072B40F25C
:10597800838008224749404611F0B4F8342010F0DB
:1059880050FC454BCDF8008029461B680546434A24
:105998000193434BFFF7D0FA2E98E563B84203D042
:1059A8003099013110F0E2FB2898504503D02A992C
:1059B800013110F0DBFB36AD34A8D6E9001234957E
:1059C8000A44FBF7F3F8382010F02BFC039A34A9AB
:1059D8000746FFF715F834982762A84203D036998E
:1059E800013110F0C3FB34A83495D6E900120A44FB
:1059F800FBF7DCF86FF04043359A9B1A042B3BD930
:105A08000522284934A811F06DF8382010F009FC57
:105A1800254B34A906461A68FFF7CCF93498A662D4
:105A2800A84203D03699013110F0A0FB24200026AB
:105A380010F0F7FB4FF0FF3205463346026206705E
:105A480044601A4A1A49C0E90266C0E90466C0E916
:105A58000666204610F08CFB334668612046154ADE
:105A6800134910F085FB03462046E562AB603BB066
:105A7800BDEC028BBDE8F08F0F4810F0C5FE00BFEB
:105A8800B87F01086F12833A3333333FCDCC4C3D96
:105A98000AD7233C54830108D82C0024D9150008C0
:105AA800651900081884010800120024D08701082D
:105AB800BC850108CC850108A082010810B5044600
:105AC800C06BB0EE406AFEF76DFF94ED095AB7EE71
